:080000000C9445000C948C03E4
:04002C000C948104AB
:14005400000000000000000000000000010301030000000090
:140068000000000041434B4E414B43414B73746172740000DE
:0D007C00000000656E643A000000003A00CC
:14008A00CFE5D4E0CDBFDEBFC051D0400AEA08830024E5E93F
:14009E00F0E011E0E539F10711F00192FBCF0083E4E5F0E0FD
:1400B200A0E6B0E010E000E00BBFE938F10721F0C89531963C
:1400C6000D92F9CF01D0FFCF2497AA240E94500744275527B7
:1400DA0065E0F2D16DD3EED300E815E236D4F4D200ED17E076
:1400EE00D1D393D110936500009364003093670020936600B4
:1401020008C0EAD104E610E0C3D3E6D104EF11E0BFD3262E75
:1401160033246150222099F79CC0A9D3002319F0DBD2BDD1BC
:14012A00DCD264D3C02E002319F0D4D2DCD1D5D268D3C02E9F
:14013E00002309F0E5D16BD3C02E002319F0C8D22BD1C9D252
:140152006FD3C02E002319F0C1D2C4D1C2D273D3C02E00232A
:1401660019F0BAD213D2BBD277D3C02E002319F0B3D225D29E
:14017A00B4D286D3C02E002339F060916F00613011F06330D3
:14018E0009F4F1D07CD3C02E002381F060916F00623011F0DB
:1401A200633051F480E0809364008093650080936600809396
:1401B6006700DDD069D3C02E002319F08DD212D28ED263D3F2
:1401CA00C02E002319F086D229D287D2BBD3C02E002349F083
:1401DE00B7D3C02EA01629F4A89527D4AA24ACD303C0AED3F9
:1401F200C02EAC2C0E94420788942220320442045204E9F03F
:14020600688079808A809B800E946407B1F4A8954F5F5F4F93
:14021A004639E0E05E0798F0C3D080E08093600080936100CA
:14022E0080936200809363000E9450074427552704C00E948B
:1402420042070E945F070EE110E022D3C89902C0D89A01C02D
:14025600D89863CF24960895A89523E008E710E0A5C3A895D7
:14026A0023E00BE710E0A0C3A89523E00EE710E09BC3AA9279
:14027E00BA9220906F00209286000E94C50612014424552468
:140292000E944B072092870088E090E0209166003091670014
:1402A60000916400109165008A9348D5009388000E94D2067A
:1402BA0020928900202E3324409087005524420C531C209013
:1402CE0089003324420C531C40928A00B990A99008952224BE
:1402E200209276002092730020927000209271002092740050
:1402F6002092770020927500209272000895A895C1D20023F0
:14030A0009F016C080916F00833009F02ED0C5D0DA9A04E6F3
:14031E0010E0B8D2D99804E610E0B4D281E080936F0001C0DC
:14033200A895ABD20023E1F70895A895A6D2002309F016C0BE
:1403460080916F00833009F012D0A9D0D99A04E610E09CD261
:14035A00DA9804E610E098D282E080936F0001C0A8958ED297
:14036E000023E1F70895A89580916F00833009F412C083E041
:1403820080936F0080936D00AADFB7D2D99A01E010E07ED2BF
:14039600DA9A01E010E07AD204EF11E077D208955BDFC9CF26
:1403AA0024970E9450070E94D2060E945F07A895288039806B
:1403BE004A805B80222D04E010E090D10E94F306B9D40E9438
:1403D200330703E010E088D10E94F306B1D40E94330702E0D3
:1403E60010E080D10E94F306A9D40E94330701E010E078D1B4
:1403FA0022270027112774D1222700E011E070D122270FEF60
:14040E0011E06CD163D024960895AA9224970E94500700270B
:14042200112772D1002309F035C000E011E06CD1002309F010
:140436002FC00FEF11E066D1A02E002309F028C001E010E0FA
:14044A005FD1A02E2A2C3324442455240E945F070E94F3066F
:14045E0067D40E943D0702E010E050D10E94DB060E94F30658
:140472005DD40E943D0703E010E046D10E94DB060E94F30657
:1404860053D40E943D0704E010E03CD10E94DB0608811981CE
:14049A002A813B812496A9900895DCDE80916C00823011F469
:1404AE001DD207C080916C00813011F41AD201C01BD208951A
:1404C2008FEF8ABB8BBBDF98222424BA85BB8A988B989298D3
:1404D60093980895DF9A02E310E0D8D1DF980895CADE2DE08A
:1404EA0001E810E061C2B6DE80916D00833011F43CDF07C056
:1404FE0080916D00813011F4FEDE01C018DF0895FAD38091A7
:140512006F008330A9F4A2DE0E94FB060E9425070E94640718
:1405260010F4EDDE32C00E94FB060E9425070E94780710F46A
:14053A0000DF29C01ADF27C080916F00813079F446E050E011
:14054E0060E070E00E94FB060E9487070E9425070E9464075B
:1405620010F007DF14C080916F00823081F446E050E060E08E
:1405760070E00E94FB06240E351E461E571E0E9425070E94B0
:14058A00780708F0F2DEBEC34A935A9363DE40916E005527CF
:14059E004130E0E05E0729F04230E0E05E0719F007C0DC98BF
:1405B20005C0DC9808EC10E06BD1DC9A5991499108954A9328
:1405C6005A934ADE40916E0055274130E0E05E0729F0423030
:1405DA00E0E05E0711F001C0DC9A599149910895AA924ED1F4
:1405EE00002309F017C004E610E04CD149D1002309F410C005
:1406020080DE06C041D1A02E002309F005C0A8953DD1A02EE6
:140616000023B1F7ACDE08EE13E038D1A9900895AA9231D175
:14062A00002309F017C004E610E02ED12CD1002309F410C003
:14063E007EDE06C024D1A02E002309F005C0A89520D1A02EE6
:140652000023B1F78EDE08EE13E01AD1A99008952A970E9450
:14066600FB062E823F82488659868EE890E0FE0106E010E0A6
:14067A00FA93EA939A938A936BD3A8950E942E070E947D07A0
:14068E001201442455240E944B07298288E090E00E811F81BE
:1406A200288539858A934CD30A830E947D072B822A8033243C
:1406B60049805524420C531C2B803324420C531C4C8226E09E
:1406CA008E0172D12A960895A8958FE181BD8FE081BD0895B8
:1406DE00A895D898FBCEA895D89A0895FFD2A22E6801E199C2
:1406F200FECFDFBACEBAADBAE29AF894E19A789401E010E03F
:14070600C5D0E2C2E199FECF1FBB0EBBE09A0DB308952A9229
:14071A003A924A925A920A931A932A933A930E946E072FB667
:14072E002A9280916D00833091F0813039F40E94C5060E945C
:140742004B070E941C071AC00E94C506281A390A4A0A5B0A07
:140756000E941C0711C0839B09C00E94C506281A390A4A0ACC
:14076A005B0A0E941C0706C00E94C5060E944B070E941C0765
:14077E000E942E070E9442070E944B0730926100209260007C
:1407920050926300409262008AB780648ABF29902FBE0E9424
:1407A60073073991299119910991599049903990299018950C
:1407BA0083E085BF8BB780648BBF0895989B02C0002701C09A
:1407CE0001E00895999B02C0002701C001E008959A9B02C046
:1407E200002701C001E008959B9B02C0002701C001E008953F
:1407F60020907000222029F022242092700001E001C0002743
:14080A00089520907100222011F001E001C0002708952090C3
:14081E007200222029F022242092720001E001C00027089529
:1408320020907300222029F022242092730001E001C0002700
:14084600089520907400222029F022242092740001E001C074
:14085A000027089520907500222029F022242092750001E0F8
:14086E0001C00027089520907700222029F022242092770000
:1408820001E001C0002708959DCFA2CFA7CFACCF30D266279F
:140896007727442755270CC06627772702C06F5F7F4F6537D8
:1408AA00E4E07E07D0F3A8954F5F5F4F4017510788F31EC28B
:1408BE00BD9ABF9ABC9A81E58DB90895000F111F000F111F59
:1408D200C4981801232C33242FB8779BFECF0FB9779BFECF8A
:1408E600C49A089506EB13E0EDCF0CE612E0EACF06E311E0EC
:1408FA00E7CF00271127E4CF2A923A928A939A93EA93FA9346
:14090E002FB62A925798209094003324822D8F5F8093940066
:1409220085E990E0E22DFF27E80FF91F2CB02082579A299077
:140936002FBEF991E991999189913990299018952224209251
:14094A0094000895009194000895D7D1580122242AB82BB89A
:14095E0086E880BD15014424552440E251EA67E070E05A9203
:140972004A923A922A928A019B014CD141E050E060E070E0E8
:14098600180129010E948707510129B8232C332420BC88E9C4
:14099A008AB980E88FBF899AB5C15D9BFECF0CB95E9BFECF67
:1409AE005E9A089599D1C22E7801AA2407C0EA2DFF27EE0D00
:1409C200FF1D0081EEDFA394AC14B8F382C1AA924A934FEF7B
:1409D600AA2426C085E990E0EA2D0E9417078337F1F486E996
:1409EA0090E0EA2D0E9417078437B9F487E990E0EA2D0E94B1
:1409FE001707813681F488E990E0EA2D0E941707823749F4ED
:140A120089E990E0EA2D0E941707843711F44A2D06C0A394E3
:140A2600802F8450A81608F4D5CF042F4991A990089565D1C2
:140A3A0089DF602F4FEF093008F4E1C084E1861720F4222441
:140A4E0020929400DAC084E990E0E62F0E941707843609F04F
:140A6200D1C083E990E0E62F0E9417078E3609F0C9C082E98D
:140A760090E0E62F0E941707853609F0C1C0062FA4DF402FCB
:140A8A000F3F09F4B9C08AE90E94ED06A080BB24C501813016
:140A9E00E0E09E0749F18230E0E09E0709F489C08330E0E0D5
:140AB2009E0709F488C08430E0E09E0709F487C08630E0E073
:140AC6009E0709F48CC08730E0E09E0709F491C08830E0E04C
:140ADA009E0709F490C08130E0E09E070CF48CC0C50181313C
:140AEE00E0E09E0759F086C08BE90E94ED06208020926D0038
:140B020081E0809370007CC06D3058F0242E3324462E552444
:140B16002414350434F4842D82198D3010F4A1DB6DC08CE907
:140B2A000E94ED06208033248BE90E94ED0640805524420C9B
:140B3E00531C8DE90E94ED0620803324420C531C20909E0027
:140B5200421411F08DDB54C08BE90E94ED068081992701975A
:140B66001C01442437FC4094552447FC509430926900209272
:140B7A00680050926B0040926A0088E090E0810192018A936C
:140B8E00CFD00E9456078CE90E94ED060E94040788E090E026
:140BA200830194018A93C2D00E9456078DE90E94ED060E94CB
:140BB600040781E08093710021C081E0809372001DC081E036
:140BCA008093730019C08BE90E94ED06208020926E0081E08E
:140BDE00809374000FC08BE90E94ED06208020926C0081E085
:140BF2008093770005C081E08093750001C030DDA1DE01C0A9
:140C06009FDE82C0E89401C068942DD0CC2408C0E89401C0F0
:140C1A00689427D037FD7DD0B7FD4BD0772488249924AA24B1
:140C2E00BB243BD0B1F03ED0A1F0E8E20E948207771C881C5C
:140C4200991CAA1CBB1C88169906AA06BB0628F0881A990A41
:140C5600AA0ABB0A0395EA9569F726F4082D192D2A2D3B2D46
:140C6A0011C07A928A929A92AA92BA92CA92EA930E946E07D9
:140C7E008B859C85AD85BE85C32E0EF0CB260895C7FC45D067
:140C92000E947307E991C990B990A9909990899079902496D8
:140CA6000895E02FE12BE22BE32B0895E82FE92BEA2BEB2B74
:140CBA00089580959095A095B0958F5F9F4FAF4FBF4F089550
:140CCE000E948C0708950E948C07E990F99008957A936A9362
:140CE2005A934A93FA92EA92DA92CA92BA92AA9208950E949D
:140CF60069070895499159916991799108950E946907BA921A
:140D0A00AA920895A990B99049915991699179910895009580
:140D1E001095209530950F5F1F4F2F4F3F4F08950F920990E3
:140D3200002021F00E9482070A94FACF0F9008950F92099074
:140D4600002031F036952795179507950A94F8CF0F900895E8
:140D5A00AA93BA93EA93FA930A92AF81B885ED81FE810030CB
:140D6E00010729F001900D9201501040F8CF0990F991E9911B
:140D8200B991A9912496089581E090E0A0E0B0E0409066006B
:140D9600509067002090640030906500089540906600509016
:140DAA00670020906400309065000895A02E2A2C3324442415
:140DBE005524688079808A809B80620C731C841C951C68826A
:140DD20079828A829B82089590E0E42FFF27E80FF91F0895F7
:140DE60088E090E0088119812A813B818A93089540906A00A3
:140DFA0050906B00209068003090690008952080332444245D
:140E0E00552438014901620C731C841C951C70926900609229
:140E2200680090926B0080926A000895FF27E80FF91F808178
:140E36000895309265002092640050926700409266000895B0
:140E4A0080906600909067006090640070906500089581E0E0
:140E5E0090E0A0E0B0E00895088319832A833B832880398070
:140E72004A805B80222D0895088319832A833B8308954090DC
:140E860062005090630020906000309061000895280E391E58
:140E9A004A1E5B1E089580E0888389838A838B8308951093F4
:140EAE0069000093680030936B0020936A000895288239827F
:140EC2004A825B820895621473048404950408957A936A9321
:140ED6005A934A9308958A939A93AA93BA930895B991A991AC
:140EEA00999189910895261437044804590408952E803F80EB
:140EFE00488459840895000F111F221F331F0895241A350AAE
:100F1200460A570A0895A990B990C990D9900895A0
:00000001FF
