:080000000C943E000C94DF0299
:04002C000C94ED0340
:14005400000000000000000000000000000301000000000094
:1400680000000041434B73746172740000000000656E640050
:14007C00CFE5D4E0CDBFDEBFC051D0400AEA08830024E8E84B
:14009000F0E011E0E838F10711F00192FBCF0083E4E5F0E009
:1400A400A0E6B0E010E000E00BBFEC37F10721F0C895319648
:1400B8000D92F9CF01D0FFCF2497AA240E94700644275527A6
:1400CC0092D1E4D265D300E815E2AAD356D200ED17E048D34C
:1400E0002FD1109365000093640030936700209366008BD16E
:1400F4008DC0EED2002319F04AD290D14BD2F3D2002309F044
:14010800A2D1F7D2C02E002319F03FD25BD140D2FBD2C02E83
:14011C00002319F038D279D139D215D3C02E002319F031D23F
:1401300052D132D2F8D2C02E002319F02AD2CBD12BD2FCD24D
:14014400C02E002319F023D2DDD124D20BD3C02E002309F00C
:140158009ED007D3C02E002351F099D080E0809364008093A6
:14016C0065008093660080936700FAD2C02E002319F009D266
:14018000D6D10AD2F4D2C02E002319F002D2E5D103D249D38D
:14019400C02E002341F045D3C02EA01621F4B8D3AA243BD3DD
:1401A80003C03DD3C02EAC2C0E945C068894222032044204CC
:1401BC005204E1F0688079808A809B800E947606A9F44F5F99
:1401D0005F4F4436E0E05E0798F07BD080E080936000809315
:1401E400610080936200809363000E9470064427552704C0F8
:1401F8000E945C060E9485060EE110E0B5D2C89902C0D89AC7
:14020C0001C0D89872CF2496089523E007E710E038C3209089
:140220006D0020927F0088E10E946506C0D4009380000E946D
:140234000C061201442455242092810088E00E946506B3D481
:14024800009382000E940C0620928300089588D2002309F091
:14025C000BC0DA9A04E610E085D2D99804E610E081D281E01F
:1402700080936D00089579D2002309F00BC0D99A04E610E0DE
:1402840075D2DA9804E610E071D282E080936D000895D99A9E
:1402980004E610E069D2DA9A04E610E065D283E080936D00D5
:1402AC0000C02224209275002092720020926F0020927000AA
:1402C00020927300209276002092740020927100089524973C
:1402D4000E9470060E940C060E94850694D0A895288039801B
:1402E8004A805B80222D04E010E054D10E9427065AD40E9476
:1402FC00440603E010E04CD10E94270652D40E94440602E0F1
:1403100010E044D10E9427064AD40E94440601E010E03CD11D
:1403240022270027112738D1222700E011E034D122270FEFAE
:1403380011E030D124960895AA9224970E94700600271127FA
:14034C0031D1002309F035C000E011E02BD1002309F02FC0B2
:140360000FEF11E025D1A02E002309F028C001E010E01ED112
:14037400A02E2A2C3324442455240E9485060E94270609D440
:140388000E944E0602E010E00FD10E9415060E942706FFD35B
:14039C000E944E0603E010E005D10E9415060E942706F5D35A
:1403B0000E944E0604E010E0FBD00E941506088119812A8119
:1403C4003B812496A990089554DF84E080936D0020CF8091C2
:1403D8006C00823011F4F4D107C080916C00813011F4F1D16D
:1403EC0001C0F2D112CF8FEF8ABB8BBBDF98222424BA85BBB4
:140400008A988B98929893980895DF9A02E310E0AFD1DF986C
:14041400089503DF2DE00AE710E037C280916D00833011F438
:1404280036DF0FC080916D00813031F499D1002309F008C03A
:14043C000CDF05C094D1002309F002C016DFE5DE089590D301
:1404500080916D00813029F40E94E3050E94760648F4809157
:140464006D00823039F40E94E3050E947B0610F010DF2EC0AE
:1404780080916D00833009F029C0C9DE40E05FEF6FEF7FEF7C
:14048C000E940C06421553056405750578F40E94E3050E947E
:1404A000760610F4E8DE16C00E94E3050E947B0608F0E0CFD8
:1404B400D0DE0EC00E94E3050E94760610F4C9DE07C00E94FC
:1404C800E3050E947B0608F0D1CFD1DE52C34A935A9340911E
:1404DC006E0055274130E0E05E0729F04230E0E05E0719F0D3
:1404F00007C0DD9805C0DD9804E610E039D1DD9A8ADE5991D5
:14050400499108954A935A9340916E0055274130E0E05E0751
:1405180029F04230E0E05E0711F001C0DD9A77DE59914991CD
:14052C000895AA921BD1002309F00FC08EDE05C015D10023D1
:1405400009F005C0A89512D1A02E0023B9F7A3DE08EE13E0BE
:140554000DD1A9900895AA9206D1002309F00FC088DE05C0B6
:1405680000D1002309F005C0A895FDD0A02E0023B9F78DDEB7
:14057C0008EE13E0F7D0A9900895A8958FE181BD8FE081BD4D
:140590000895A895D89839CFD89A0895E199FECF1FBB0EBB0C
:1405A4002DBBE29AF894E19A78940895E199FECF1FBB0EBB45
:1405B800E09A0DB308950A921A922A923A924A925A928A92A4
:1405CC009A920E949A060FB60A92AA92BA9280916D00833093
:1405E000E1F0813069F481E090E0A0E0B0E00E940C06280E5D
:1405F400391E4A1E5B1E0E94360628C081E090E0A0E0B0E014
:140608000E940C06281A390A4A0A5B0A0E9436061BC0839B15
:14061C000DC081E090E0A0E0B0E00E940C06281A390A4A0A8F
:140630005B0A0E9436060CC081E090E0A0E0B0E00E940C0612
:14064400280E391E4A1E5B1E0E94360681E090E0A0E0B0E075
:140658000E945C06280E391E4A1E5B1E3092610020926000E7
:14066C0050926300409262008AB780648ABFB990A990099078
:140680000FBE0E949006999089905990499039902990199032
:140694000990189583E085BF8BB780648BBF0895989B02C063
:1406A800002701C001E00895999B02C0002701C001E008957C
:1406BC009A9B02C0002701C001E008959B9B02C0002701C0ED
:1406D00001E0089520906F00222029F0222420926F0001E0D6
:1406E40001C00027089520907000222011F001E001C0002751
:1406F800089520907100222029F022242092710001E001C0CA
:14070C000027089520907200222029F022242092720001E04D
:1407200001C00027089520907300222029F022242092730057
:1407340001E001C00027089520907400222029F022242092D4
:14074800740001E001C00027089520907600222029F02224FC
:14075C002092760001E001C0002708959DCFA2CFA7CFACCF2D
:14077000F7D166277727442755270CC06627772702C06F5F14
:140784007F4F6537E4E07E07D0F3A8954F5F5F4F40175107A3
:1407980088F3E5C1BD9ABF9ABC9A81E58DB90895000F111F9E
:1407AC00000F111FC4981801232C33242FB8779BFECF0FB951
:1407C000779BFECFC49A089506EB13E0EDCF0CE612E0EACF0E
:1407D40006E311E0E7CF2A923A928A939A93EA93FA932FB6C0
:1407E8002A925798209087003324822D8F5F8093870088E81D
:1407FC0090E0E22DFF27E80FF91F2CB02082579A29902FBE20
:14081000F991E99199918991399029901895222420928700DE
:140824000895009187000895A1D1580122242AB82BB886E82A
:1408380080BD15014424552440E251EA67E070E05A924A92BC
:14084C003A922A928A019B0117D141E050E060E070E0180107
:140860002901241A350A460A570A510129B8232C332420BC77
:1408740088E98AB980E88FBF899A7DC15D9BFECF0CB95E9B22
:14088800FECF5E9A089561D1C22E7801AA2407C0EA2DFF278D
:14089C00EE0DFF1D0081EEDFA394AC14B8F348C1AA924A931F
:1408B0004FEFAA2426C088E890E0EA2D0E943F068337F1F4C5
:1408C40089E890E0EA2D0E943F068437B9F48AE890E0EA2DE0
:1408D8000E943F06813681F48BE890E0EA2D0E943F0682375F
:1408EC0049F48CE890E0EA2D0E943F06843711F44A2D06C0DC
:14090000A394802F8450A81608F4D5CF042F4991A9900895E8
:1409140025D187DF602F4FEF093008F4AAC084E1861720F4F1
:14092800222420928700A3C087E890E0E62F0E943F06843644
:14093C0009F09AC086E890E0E62F0E943F068E3609F092C06B
:1409500085E890E0E62F0E943F06853609F08AC0062FA4DF04
:14096400402F0F3F09F482C08DE890E0E42FFF27E80FF91F56
:14097800608177276130E0E07E0719F16230E0E07E0709F438
:14098C0054C06330E0E07E0709F453C06430E0E07E0709F485
:1409A00052C06630E0E07E0709F456C06730E0E07E0709F46A
:1409B4005AC06130E0E07E070CF458C06131E0E07E0751F00F
:1409C80053C08EE80E942F0620926D0081E080936F004AC0AF
:1409DC008EE80E942F0633244424552430926900209268003D
:1409F00050926B0040926A0088E090E0810192018A93CBD0C5
:140A04000E9453068FE80E94F4050E948A06C3D00E94530611
:140A180080E90E94F4050E948A06BBD00E94530681E90E9402
:140A2C00F40581E0809370001DC081E08093710019C081E0DD
:140A40008093720015C08EE80E942F0620926E0081E0809367
:140A540073000CC08EE80E942F0620926C0081E080937600FA
:140A680003C081E080937400D6DE01C0D4DE77C0E89401C034
:140A7C0068942DD0CC2408C0E89401C0689427D037FD7CD005
:140A9000B7FD4BD0772488249924AA24BB243BD0B1F03ED018
:140AA400A1F0E8E20E949506771C881C991CAA1CBB1C88167F
:140AB8009906AA06BB0628F0881A990AAA0ABB0A0395EA952D
:140ACC0069F726F4082D192D2A2D3B2D11C07A928A929A923D
:140AE000AA92BA92CA92EA930E949A068B859C85AD85BE85B9
:140AF400C32E0EF0CB260895C7FC44D00E949006E991C9908F
:140B0800B990A99099908990799024960895E02FE12BE22B8D
:140B1C00E32B0895E82FE92BEA2BEB2B089580959095A095B8
:140B3000B0958F5F9F4FAF4FBF4F0895A990B990C990D990A3
:140B4400E990F99008957A936A935A934A93FA92EA92DA92B6
:140B5800CA92BA92AA9208950E948006089549915991699185
:140B6C00799108950E948006BA92AA920895A990B990499125
:140B8000599169917991089500951095209530950F5F1F4F46
:140B94002F4F3F4F08950F920990002021F00E9495060A945E
:140BA800FACF0F9008950F920990002031F036952795179586
:140BBC0007950A94F8CF0F90089540906A0050906B002090B3
:140BD00068003090690080906600909067006090640070902F
:140BE4006500089590E0E42FFF27E80FF91F208033244424E4
:140BF800552438014901620C731C841C951C70926900609242
:140C0C00680090926B0080926A000895409066005090670049
:140C200020906400309065000895A02E2A2C3324442455248E
:140C3400688079808A809B80620C731C841C951C6882798273
:140C48008A829B82089588E090E0088119812A813B818A9353
:140C5C00089590E0E42FFF27E80FF91F2080089530926500CB
:140C70002092640050926700409266000895FF27E80FF91F07
:140C840080810895088319832A833B83288039804A805B8026
:140C9800222D0895088319832A833B8308951093690000938E
:140CAC00680030936B0020936A00089540906200509063006F
:140CC0002090600030906100089590E02091660030916700A3
:140CD40000916400109165008A93089580E0888389838A83D3
:140CE8008B83089562147304840495040895261437044804E1
:140CFC00590408957A936A935A934A930895288239824A8248
:140D10005B82089588E090E0830194018A930895B991A99126
:140D2400999189910895000F111F221F331F08958A939A9321
:060D3800AA93BA9308958E
:00000001FF
