:080000000C9445000C94470329
:04002C000C945404D8
:14005400000000000000000000000000010301030000000090
:140068000000000041434B4E414B43414B73746172740000DE
:0D007C00000000656E643A000000003A00CC
:14008A00CFE5D4E0CDBFDEBFC051D0400AEA08830024E5E93F
:14009E00F0E011E0E539F10711F00192FBCF0083E4E5F0E0FD
:1400B200A0E6B0E010E000E00BBFE938F10721F0C89531963C
:1400C6000D92F9CF01D0FFCF2497AA240E94140744275527F3
:1400DA00CED141D3C2D300E815E20AD4B0D200ED17E0A5D32F
:1400EE006FD110936500009364003093670020936600C7D1E4
:140102009BC08AD3002319F0A4D2A6D1A5D245D3002319F05D
:140116009ED2C6D19FD24AD3C02E002309F0CFD14DD3C02E88
:14012A00002319F092D215D193D251D3C02E002319F08BD24B
:14013E00AED18CD255D3C02E002319F084D2E6D185D259D3FE
:14015200C02E002319F07DD2F8D17ED268D3C02E002339F0A2
:1401660060916F00613011F0633009F4DBD05ED3C02E002316
:14017A0081F060916F00623011F0633051F480E0809364005E
:14018E00809365008093660080936700C7D04BD3C02E00232C
:1401A20019F057D2E5D158D245D3C02E002319F050D2FCD116
:1401B60051D29DD3C02E002349F099D3C02EA01629F4A895EE
:1401CA000BD4AA248ED303C090D3C02EAC2C0E94060788945C
:1401DE002220320442045204E9F0688079808A809B800E9478
:1401F2002507B1F4A8954F5F5F4F4639E0E05E0798F0ADD0E6
:1402060080E0809360008093610080936200809363000E9410
:14021A0014074427552704C00E9406070E9431070EE110E0A2
:14022E0004D3C89902C0D89A01C0D89864CF24960895A89558
:1402420023E008E710E089C3A89523E00BE710E084C3A895D4
:1402560023E00EE710E07FC320906F002092860088E10E9408
:14026A001A0731D5009387000E94C20612014424552420922F
:14027E00880088E00E941A0724D5009389000E94C206209288
:140292008A00089522242092760020927300209270002092CA
:1402A60071002092740020927700209275002092720008959C
:1402BA00A895B9D2002309F016C080916F00833009F02ED04C
:1402CE00C5D0DA9A04E610E0B0D2D99804E610E0ACD281E08D
:1402E20080936F0001C0A895A3D20023E1F70895A8959ED2CE
:1402F600002309F016C080916F00833009F012D0A9D0D99A08
:14030A0004E610E094D2DA9804E610E090D282E080936F000D
:14031E0001C0A89586D20023E1F70895A89580916F0083306D
:1403320009F412C083E080936F0080936D00AADFAFD2D99A06
:1403460001E010E076D2DA9A01E010E072D204EF11E06FD2DC
:14035A00089571DFC9CF24970E9414070E94C2060E9431074E
:14036E00A895288039804A805B80222D04E010E070D10E9432
:14038200DD06A5D40E94F30603E010E068D10E94DD069DD46E
:140396000E94F30602E010E060D10E94DD0695D40E94F3062C
:1403AA0001E010E058D122270027112754D1222700E011E05E
:1403BE0050D122270FEF11E04CD163D024960895AA92249734
:1403D2000E9414070027112752D1002309F035C000E011E0F6
:1403E6004CD1002309F02FC00FEF11E046D1A02E002309F0EB
:1403FA0028C001E010E03FD1A02E2A2C3324442455240E9428
:14040E0031070E94DD0653D40E940F0702E010E030D10E94C9
:14042200CB060E94DD0649D40E940F0703E010E026D10E942F
:14043600CB060E94DD063FD40E940F0704E010E01CD10E942E
:14044A00CB06088119812A813B812496A9900895F2DE8091D2
:14045E006C00823011F415D207C080916C00813011F412D2A2
:1404720001C013D208958FEF8ABB8BBBDF98222424BA85BB4F
:140486008A988B98929893980895DF9A02E310E0D0D1DF98C5
:14049A000895E0DE2DE001E810E05BC2CCDE80916D00833015
:1404AE0011F43CDF07C080916D00813011F4FEDE01C018DF8B
:1404C200089580916F00833089F4B9DE0E94A4060E94250728
:1404D60010F4F0DE1EC00E94A4060E94410710F405DF17C06D
:1404EA001FDF15C080916F00813039F40E94A4060E942507B3
:1404FE0010F014DF0AC080916F00823031F40E94A4060E94E8
:14051200410708F009DF08954A935A9390DE40916E0055271D
:140526004130E0E05E0729F04230E0E05E0719F007C0DD9836
:14053A0005C0DD9808EC10E07AD1DD9A5991499108954A938F
:14054E005A9377DE40916E0055274130E0E05E0729F042307B
:14056200E0E05E0711F001C0DD9A599149910895AA925DD15C
:14057600002309F017C004E610E05BD158D1002309F410C05F
:14058A0097DE06C050D1A02E002309F005C0A8954CD1A02E2A
:14059E000023B1F7C3DE08EE13E047D1A9900895AA9240D1B9
:1405B200002309F017C004E610E03DD13BD1002309F410C05E
:1405C60095DE06C033D1A02E002309F005C0A8952FD1A02E2A
:1405DA000023B1F7A5DE08EE13E029D1A99008952A97409075
:1405EE006A0050906B0020906800309069002E823F824886C4
:1406020059868EE890E0FE0106E010E0FA93EA939A938A93F6
:1406160068D388E10E942A0758D309830E945A071201442424
:14062A0055242A8288E00E942A074DD30B830E945A072C82FD
:14063E0026E08E018CD12A960895A8958FE181BD8FE081BDC1
:140652000895A895D8981BCFA895D89A08950BD3A22E6801FD
:14066600E199FECFDFBACEBAADBAE29AF894E19A789401E041
:14067A0010E0DDD0EEC2E199FECF1FBB0EBBE09A0DB308955E
:14068E002A923A924A925A920A931A932A933A930E9450073B
:1406A2002FB62A9280916D008330E1F0813069F481E090E0C2
:1406B600A0E0B0E00E94C206280E391E4A1E5B1E0E94EA06B6
:1406CA0028C081E090E0A0E0B0E00E94C206281A390A4A0A10
:1406DE005B0A0E94EA061BC0839B0DC081E090E0A0E0B0E06A
:1406F2000E94C206281A390A4A0A5B0A0E94EA060CC081E08D
:1407060090E0A0E0B0E00E94C206280E391E4A1E5B1E0E94E5
:14071A00EA0681E090E0A0E0B0E00E940607280E391E4A1E56
:14072E005B1E309261002092600050926300409262008AB74F
:1407420080648ABF29902FBE0E94550739912991199109910A
:140756005990499039902990189583E085BF8BB780648BBF87
:14076A000895989B02C0002701C001E00895999B02C0002766
:14077E0001C001E008959A9B02C0002701C001E008959B9B95
:1407920002C0002701C001E0089520907000222029F022246A
:1407A6002092700001E001C00027089520907100222011F053
:1407BA0001E001C00027089520907200222029F02224209250
:1407CE00720001E001C00027089520907300222029F022247B
:1407E2002092730001E001C00027089520907400222029F0F9
:1407F60022242092740001E001C000270895209075002220B6
:14080A0029F022242092750001E001C00027089520907700C7
:14081E00222029F022242092770001E001C0002708959DCF2A
:14083200A2CFA7CFACCF24D266277727442755270CC06627EF
:14084600772702C06F5F7F4F6537E4E07E07D0F3A8954F5F0F
:14085A005F4F4017510788F312C2BD9ABF9ABC9A81E58DB92C
:14086E000895000F111F000F111FC4981801232C33242FB859
:14088200779BFECF0FB9779BFECFC49A089506EB13E0EDCF41
:140896000CE612E0EACF06E311E0E7CF00271127E4CF2A9253
:1408AA003A928A939A93EA93FA932FB62A9257982090940046
:1408BE003324822D8F5F8093940085E990E0E22DFF27E80F81
:1408D200F91F2CB02082579A29902FBEF991E991999189919D
:1408E6003990299018952224209294000895009194000895E4
:1408FA00CBD1580122242AB82BB886E880BD15014424552448
:14090E0040E251EA67E070E05A924A923A922A928A019B016A
:1409220040D141E050E060E070E018012901241A350A460ABF
:14093600570A510129B8232C332420BC88E98AB980E88FBF2D
:14094A00899AA7C15D9BFECF0CB95E9BFECF5E9A08958BD1CD
:14095E00C22E7801AA2407C0EA2DFF27EE0DFF1D0081EEDFE5
:14097200A394AC14B8F374C1AA924A934FEFAA2426C085E921
:1409860090E0EA2D0E94E5068337F1F486E990E0EA2D0E9412
:14099A00E5068437B9F487E990E0EA2D0E94E506813681F446
:1409AE0088E990E0EA2D0E94E506823749F489E990E0EA2DC1
:1409C2000E94E506843711F44A2D06C0A394802F8450A8161F
:1409D60008F4D5CF042F4991A990089557D187DF602F4FEF2F
:1409EA00093008F4D3C084E1861720F4222420929400CCC003
:1409FE0084E990E0E62F0E94E506843609F0C3C083E990E054
:140A1200E62F0E94E5068E3609F0BBC082E990E0E62F0E9464
:140A2600E506853609F0B3C0062FA4DF402F0F3F09F4ABC0CD
:140A3A008AE90E94BC06A080BB24C5018130E0E09E0749F1BC
:140A4E008230E0E09E0709F47DC08330E0E09E0709F47CC0F2
:140A62008430E0E09E0709F47BC08630E0E09E0709F47FC0D8
:140A76008730E0E09E0709F483C08830E0E09E0709F482C0B4
:140A8A008130E0E09E070CF47EC0C5018131E0E09E0751F0E6
:140A9E0078C08BE90E94B50620926D0081E0809370006FC009
:140AB2008BE90E94B5063324442455243092690020926800E2
:140AC60050926B0040926A0088E090E0810192018A93F1D0C8
:140ADA000E94FD068CE90E948C060E943B07E9D00E94FD0678
:140AEE008DE90E948C060E943B07E1D00E94FD068EE90E94F7
:140B02008C06862F841B8E3010F49EDB40C08CE90E94B506EC
:140B160033248BE90E94BC0640805524420C531C8DE90E948E
:140B2A00B5063324420C531C8EE90E94B5063324420C531C00
:140B3E0020909F00421411F086DB23C081E0809371001FC0F5
:140B520081E0809372001BC081E08093730017C08BE90E94FA
:140B6600B50620926E0081E0809374000EC08BE90E94B50619
:140B7A0020926C0081E08093770005C081E08093750001C0EF
:140B8E002DDDADDE01C0ABDE82C0E89401C068942DD0CC240C
:140BA20008C0E89401C0689427D037FD7DD0B7FD4BD077245C
:140BB60088249924AA24BB243BD0B1F03ED0A1F0E8E20E945E
:140BCA004B07771C881C991CAA1CBB1C88169906AA06BB068E
:140BDE0028F0881A990AAA0ABB0A0395EA9569F726F4082D67
:140BF200192D2A2D3B2D11C07A928A929A92AA92BA92CA92E1
:140C0600EA930E9450078B859C85AD85BE85C32E0EF0CB26DE
:140C1A000895C7FC45D00E945507E991C990B990A9909990D5
:140C2E008990799024960895E02FE12BE22BE32B0895E82F4F
:140C4200E92BEA2BEB2B089580959095A095B0958F5F9F4F32
:140C5600AF4FBF4F08950E94460708950E944607E990F99064
:140C6A0008957A936A935A934A93FA92EA92DA92CA92BA92E9
:140C7E00AA9208950E943607089549915991699179910895A8
:140C92000E943607BA92AA920895A990B9904991599169910A
:140CA6007991089500951095209530950F5F1F4F2F4F3F4FF7
:140CBA0008950F920990002021F00E944B070A94FACF0F9024
:140CCE0008950F920990002031F036952795179507950A948D
:140CE200F8CF0F900895AA93BA93EA93FA930A92AF81B8855E
:140CF600ED81FE810030010729F001900D9201501040F8CF14
:140D0A000990F991E991B991A9912496089590E0E42FFF27B4
:140D1E00E80FF91F208033244424552438014901620C731C5A
:140D3200841C951C709269006092680090926B0080926A008E
:140D4600089540906A0050906B002090680030906900809026
:140D5A006600909067006090640070906500089590E0E42FBF
:140D6E00FF27E80FF91F2080089590E0E42FFF27E80FF91F47
:140D820008954090660050906700209064003090650008956D
:140D9600A02E2A2C332444245524688079808A809B80620C79
:140DAA00731C841C951C688279828A829B82089588E090E0D2
:140DBE00088119812A813B818A930895FF27E80FF91F8081A7
:140DD200089530926500209264005092670040926600089515
:140DE600088319832A833B83288039804A805B80222D089575
:140DFA00109369000093680030936B0020936A000895409026
:140E0E00620050906300209060003090610008950883198336
:140E22002A833B83089580E0888389838A838B83089590E015
:140E3600209166003091670000916400109165008A930895B4
:140E4A006214730484049504089590E00E811F8128853985DF
:140E5E008A930895288239824A825B8208957A936A935A9324
:140E72004A93089588E090E0830194018A93089526143704D2
:140E8600480459040895A990B990C990D9900895000F111FF2
:140E9A00221F331F08958A939A93AA93BA930895B991A9911F
:100EAE009991899108952E803F80488459840895A0
:00000001FF
