:080000000C943E000C94C702B1
:04002C000C94D3035A
:14005400000000000000000000000000000301000000000094
:1400680000000041434B73746172740000000000656E640050
:14007C00CFE5D4E0CDBFDEBFC051D0400AEA08830024E8E84B
:14009000F0E011E0E838F10711F00192FBCF0083E4E5F0E009
:1400A400A0E6B0E010E000E00BBFEC37F10721F0C895319648
:1400B8000D92F9CF01D0FFCF2497AA240E94560644275527C0
:1400CC0092D1CAD24BD300E815E290D33ED200ED17E02ED3CC
:1400E0002FD1109365000093640030936700209366008BD16E
:1400F4008DC0D4D2002319F032D290D133D2D9D2002309F0A8
:14010800A2D1DDD2C02E002319F027D25BD128D2E1D2C02EE7
:14011C00002319F020D279D121D2FBD2C02E002319F019D2A2
:1401300052D11AD2DED2C02E002319F012D2B3D113D2E2D2E1
:14014400C02E002319F00BD2C5D10CD2F1D2C02E002309F06F
:140158009ED0EDD2C02E002351F099D080E0809364008093C1
:14016C0065008093660080936700E0D2C02E002319F0F1D199
:14018000BED1F2D1DAD2C02E002319F0EAD1CDD1EBD12FD33C
:14019400C02E002341F02BD3C02EA01621F49ED3AA2421D32B
:1401A80003C023D3C02EAC2C0E94340688942220320442040E
:1401BC005204E1F0688079808A809B800E945C06A9F44F5FB3
:1401D0005F4F4436E0E05E0798F07BD080E080936000809315
:1401E400610080936200809363000E9456064427552704C012
:1401F8000E9434060E9461060EE110E09BD2C89902C0D89A2D
:14020C0001C0D89872CF2496089523E007E710E01EC32090A3
:140220006D0020927F0088E10E944B06A6D4009380000E94A1
:14023400F2051201442455242092810088E00E944B0699D4D0
:14024800009382000E94F2052092830008956ED2002309F0C6
:14025C000BC0DA9A04E610E06BD2D99804E610E067D281E053
:1402700080936D0008955FD2002309F00BC0D99A04E610E0F8
:140284005BD2DA9804E610E057D282E080936D000895D99AD2
:1402980004E610E04FD2DA9A04E610E04BD283E080936D0009
:1402AC0000C02224209275002092720020926F0020927000AA
:1402C00020927300209276002092740020927100089524973C
:1402D4000E9456060E94F2050E94610694D0A8952880398074
:1402E8004A805B80222D04E010E03CD10E94140640D40E94BB
:1402FC002A0603E010E034D10E94140638D40E942A0602E06A
:1403100010E02CD10E94140630D40E942A0601E010E024D194
:1403240022270027112720D1222700E011E01CD122270FEFDE
:1403380011E018D124960895AA9224970E945606002711272C
:14034C0019D1002309F035C000E011E013D1002309F02FC0E2
:140360000FEF11E00DD1A02E002309F028C001E010E006D142
:14037400A02E2A2C3324442455240E9461060E941406EFD392
:140388000E943D0602E010E0F7D00E94FB050E941406E5D3CD
:14039C000E943D0603E010E0EDD00E94FB050E941406DBD3CC
:1403B0000E943D0604E010E0E3D00E94FB05088119812A815D
:1403C4003B812496A990089554DF84E080936D0020CF8091C2
:1403D8006C00823011F4DAD107C080916C00813011F4D7D1A1
:1403EC0001C0D8D112CF8FEF8ABB8BBBDF98222424BA85BBCE
:140400008A988B98929893980895DF9A02E310E095D1DF9886
:14041400089503DF2DE00AE710E01DC280916D00833011F452
:1404280036DF0FC080916D00813031F47FD1002309F008C054
:14043C000CDF05C07AD1002309F002C016DFE5DE08950E94DC
:140450008006813029F40E94E1050E945C0648F480916D00FE
:14046400823051F40E94E1050E94760628F011DF22242092E7
:14047800700012C080916D00833071F4C8DE0E94E1050E94C8
:14048C005C0610F4E2DE06C00E94E1050E94760650F7EBDEBA
:1404A000B990A99008954A935A9340916E0055274130E0E073
:1404B4005E0729F04230E0E05E0719F007C0DD9805C0DD98A0
:1404C80004E610E037D1DD9AA2DE5991499108954A935A931C
:1404DC0040916E0055274130E0E05E0729F04230E0E05E070B
:1404F00011F001C0DD9A8FDE599149910895AA9219D10023A8
:1405040009F00FC0A6DE05C013D1002309F005C0A89510D1EF
:14051800A02E0023B9F7BBDE08EE13E00BD1A9900895AA92BE
:14052C0004D1002309F00FC0A0DE05C0FED0002309F005C009
:14054000A895FBD0A02E0023B9F7A5DE08EE13E0F5D0A99094
:140554000895A8958FE181BD8FE081BD0895A895D89851CFF4
:14056800D89A0895E199FECF1FBB0EBB2DBBE29AF894E19A1B
:14057C0078940895E199FECF1FBB0EBBE09A0DB308950A9265
:140590001A922A923A924A925A928A929A920E947B060FB62B
:1405A4000A920E9480068330E1F0813069F481E090E0A0E09C
:1405B800B0E00E94F205280E391E4A1E5B1E0E94210628C0E7
:1405CC0081E090E0A0E0B0E00E94F205281A390A4A0A5B0A63
:1405E0000E9421061BC0839B0DC081E090E0A0E0B0E00E94F5
:1405F400F205281A390A4A0A5B0A0E9421060CC081E090E058
:14060800A0E0B0E00E94F205280E391E4A1E5B1E0E942106FE
:14061C0081E090E0A0E0B0E00E943406280E391E4A1E5B1E9F
:14063000309261002092600050926300409262008AB78064E3
:140644008ABFB990A99009900FBE0E94850699908990599019
:1406580049903990299019900990189583E085BF8BB7806477
:14066C008BBF0895989B02C0002701C001E00895999B02C042
:14068000002701C001E008959A9B02C0002701C001E00895A3
:140694009B9B02C0002701C001E0089520906F00222029F07A
:1406A800222420926F0001E001C0002708952090700022200F
:1406BC0011F001E001C00027089520907100222029F0222401
:1406D0002092710001E001C00027089520907200222029F010
:1406E40022242092720001E001C000270895209073002220CD
:1406F80029F022242092730001E001C00027089520907400E0
:14070C00222029F022242092740001E001C0002708952090FC
:140720007600222029F022242092760001E001C00027089520
:140734009DCFA2CFA7CFACCFF7D166277727442755270CC03D
:140748006627772702C06F5F7F4F6537E4E07E07D0F3A8952F
:14075C004F5F5F4F4017510788F3E5C1BD9ABF9ABC9A81E5F1
:140770008DB90895000F111F000F111FC4981801232C3324F9
:140784002FB8779BFECF0FB9779BFECFC49A089506EB13E015
:14079800EDCF0CE612E0EACF06E311E0E7CF2A923A928A93BF
:1407AC009A93EA93FA932FB62A925798209087003324822D35
:1407C0008F5F8093870088E890E0E22DFF27E80FF91F2CB09D
:1407D4002082579A29902FBEF991E99199918991399029900E
:1407E80018952224209287000895009187000895A1D15801B4
:1407FC0022242AB82BB886E880BD15014424552440E251EADF
:1408100067E070E05A924A923A922A928A019B0117D141E0BD
:1408240050E060E070E018012901241A350A460A570A51013D
:1408380029B8232C332420BC88E98AB980E88FBF899A7DC17E
:14084C005D9BFECF0CB95E9BFECF5E9A089561D1C22E780118
:14086000AA2407C0EA2DFF27EE0DFF1D0081EEDFA394AC1456
:14087400B8F348C1AA924A934FEFAA2426C088E890E0EA2DBA
:140888000E941C068337F1F489E890E0EA2D0E941C06843782
:14089C00B9F48AE890E0EA2D0E941C06813681F48BE890E0CF
:1408B000EA2D0E941C06823749F48CE890E0EA2D0E941C06A4
:1408C400843711F44A2D06C0A394802F8450A81608F4D5CF0B
:1408D800042F4991A990089525D187DF602F4FEF093008F4CB
:1408EC00AAC084E1861720F4222420928700A3C087E890E0B7
:14090000E62F0E941C06843609F09AC086E890E0E62F0E9468
:140914001C068E3609F092C085E890E0E62F0E941C0685362D
:1409280009F08AC0062FA4DF402F0F3F09F482C08DE890E0DF
:14093C00E42FFF27E80FF91F608177276130E0E07E0719F100
:140950006230E0E07E0709F454C06330E0E07E0709F453C0C3
:140964006430E0E07E0709F452C06630E0E07E0709F456C0A9
:140978006730E0E07E0709F45AC06130E0E07E070CF458C08A
:14098C006131E0E07E0751F053C08EE80E940D0620926D00E2
:1409A00081E080936F004AC08EE80E940D06332444245524F3
:1409B400309269002092680050926B0040926A0088E090E089
:1409C800810192018A93CBD00E9442068FE80E94C9050E94DB
:1409DC006B06C3D00E94420680E90E94C9050E946B06BBD0A2
:1409F0000E94420681E90E94C90581E0809370001DC081E00D
:140A04008093710019C081E08093720015C08EE80E940D069B
:140A180020926E0081E0809373000CC08EE80E940D0620921A
:140A2C006C0081E08093760003C081E080937400D6DE01C040
:140A4000D4DE77C0E89401C068942DD0CC2408C0E89401C08E
:140A5400689427D037FD7CD0B7FD4BD0772488249924AA247A
:140A6800BB243BD0B1F03ED0A1F0E8E20E947106771C881C36
:140A7C00991CAA1CBB1C88169906AA06BB0628F0881A990A09
:140A9000AA0ABB0A0395EA9569F726F4082D192D2A2D3B2D0E
:140AA40011C07A928A929A92AA92BA92CA92EA930E947B0695
:140AB8008B859C85AD85BE85C32E0EF0CB260895C7FC44D030
:140ACC000E948506E991C990B990A99099908990799024968F
:140AE0000895E02FE12BE22BE32B0895E82FE92BEA2BEB2B3C
:140AF400089580959095A095B0958F5F9F4FAF4FBF4F089518
:140B0800A990B990C990D990E990F99008957A936A935A93FF
:140B1C004A93FA92EA92DA92CA92BA92AA9208950E946606E5
:140B30000895499159916991799108950E946606BA92AA9219
:140B44000895A990B9904991599169917991089500951095DF
:140B5800209530950F5F1F4F2F4F3F4F08950F920990002030
:140B6C0021F00E9471060A94FACF0F9008950F92099000204E
:140B800031F036952795179507950A94F8CF0F90089590E060
:140B9400E42FFF27E80FF91F208033244424552438014901AA
:140BA800620C731C841C951C709269006092680090926B0099
:140BBC0080926A00089540906A0050906B00209068003090AF
:140BD000690080906600909067006090640070906500089555
:140BE400409066005090670020906400309065000895A02EDC
:140BF8002A2C332444245524688079808A809B80620C731C58
:140C0C00841C951C688279828A829B82089590E0E42FFF272F
:140C2000E80FF91F2080089588E090E0088119812A813B8112
:140C34008A930895FF27E80FF91F8081089530926500209246
:140C4800640050926700409266000895088319832A833B8384
:140C5C00288039804A805B80222D089540906200509063001D
:140C700020906000309061000895088319832A833B83089573
:140C8400109369000093680030936B0020936A00089590E0FD
:140C9800209166003091670000916400109165008A93089554
:140CAC0080E0888389838A838B8308956214730484049504F7
:140CC0000895288239824A825B8208957A936A935A934A9304
:140CD400089588E090E0830194018A930895000F111F221F44
:140CE800331F0895261437044804590408958A939A93AA93C7
:140CFC00BA930895AA92BA9280916D000895B991A9919991A9
:040D10008991089528
:00000001FF
