:080000000C9442000C943E0335
:04002C000C944F04DD
:14005400000000000000000000000000010301030000000090
:140068000000000041434B73746172740000000000656E6450
:07007C003A000000003A0009
:14008400CFE5D4E0CDBFDEBFC051D0400AEA08830024EFE83C
:14009800F0E011E0EF38F10711F00192FBCF0083E4E5F0E0FA
:1400AC00A0E6B0E010E000E00BBFE338F10721F0C895319648
:1400C0000D92F9CF01D0FFCF2497AA240E94E7064427552727
:1400D400C4D13FD3C0D300E815E208D4AAD200ED17E0A3D34D
:1400E80065D110936500009364003093670020936600BDD1FE
:1400FC009BC088D3002319F09ED29CD19FD243D3002319F07E
:1401100098D2BCD199D248D3C02E002309F0C5D14BD3C02EB2
:14012400002319F08CD20BD18DD24FD3C02E002319F085D26F
:14013800A4D186D253D3C02E002319F07ED2E0D17FD257D32A
:14014C00C02E002319F077D2F2D178D266D3C02E002339F0BC
:1401600060916F00613011F0633009F4D1D05CD3C02E002328
:1401740081F060916F00623011F0633051F480E08093640064
:14018800809365008093660080936700BDD049D3C02E00233E
:14019C0019F051D2DFD152D243D3C02E002319F04AD2F6D13C
:1401B0004BD29BD3C02E002349F097D3C02EA01629F4A895FE
:1401C40009D4AA248CD303C08ED3C02EAC2C0E94D50688949A
:1401D8002220320442045204E9F0688079808A809B800E947E
:1401EC00FF06B1F4A8954F5F5F4F4639E0E05E0798F0A3D01D
:1402000080E0809360008093610080936200809363000E9416
:14021400E7064427552704C00E94D5060E9404070EE110E035
:1402280002D3C89902C0D89A01C0D89864CF24960895A89560
:14023C0023E008E710E087C320906F002092800088E10E9426
:14025000ED0617D5009381000E948E061201442455242092CB
:14026400820088E00E94ED060AD5009383000E948E0620922A
:140278008400089522242092760020927300209270002092EA
:14028C007100209274002092770020927500209272000895B6
:1402A000A895C1D2002309F016C080916F00833009F02ED05E
:1402B400C5D0DA9A04E610E0B8D2D99804E610E0B4D281E097
:1402C80080936F0001C0A895ABD20023E1F70895A895A6D2D8
:1402DC00002309F016C080916F00833009F012D0A9D0D99A22
:1402F00004E610E09CD2DA9804E610E098D282E080936F0018
:1403040001C0A8958ED20023E1F70895A89580916F0083307F
:1403180009F412C083E080936F0080936D00AADFB7D2D99A18
:14032C0001E010E07ED2DA9A01E010E07AD204EF11E077D2DE
:1403400008957BDFC9CF24970E94E7060E948E060E940407ED
:14035400A895288039804A805B80222D04E010E074D10E9448
:14036800B0068BD40E94C60603E010E06CD10E94B00683D43F
:14037C000E94C60602E010E064D10E94B0067BD40E94C606E3
:1403900001E010E05CD122270027112758D1222700E011E070
:1403A40054D122270FEF11E050D163D024960895AA92249746
:1403B8000E94E7060027112756D1002309F035C000E011E03A
:1403CC0050D1002309F02FC00FEF11E04AD1A02E002309F0FD
:1403E00028C001E010E043D1A02E2A2C3324442455240E943E
:1403F40004070E94B00639D40E94D00602E010E034D10E9494
:1404080097060E94B0062FD40E94D00603E010E02AD10E9400
:14041C0097060E94B00625D40E94D00604E010E020D10E94FF
:140430009706088119812A813B812496A9900895FCDE809116
:140444006C00823011F41DD207C080916C00813011F41AD2AC
:1404580001C01BD208958FEF8ABB8BBBDF98222424BA85BB61
:14046C008A988B98929893980895DF9A02E310E0D8D1DF98D7
:140480000895E0DE2DE00BE710E063C2D6DE80916D00833014
:1404940011F43CDF07C080916D00813011F4FEDE01C018DFA5
:1404A8000895AA92BA9280916F00833089F4C1DE0E947D06A7
:1404BC000E94FF0610F4EEDE1EC00E947D060E94140710F4F1
:1404D00003DF17C01DDF15C080916F00813039F40E947D060B
:1404E4000E94FF0610F012DF0AC080916F00823031F40E94A9
:1404F8007D060E94140708F007DFB990A99008954A935A93E9
:14050C0096DE40916E0055274130E0E05E0729F04230E0E0CB
:140520005E0719F007C0DD9805C0DD9808EC10E07ED1DD9A39
:140534005991499108954A935A937DDE40916E005527413001
:14054800E0E05E0729F04230E0E05E0711F001C0DD9A5991A7
:14055C0049910895AA9261D1002309F017C004E610E05FD1A9
:140570005CD1002309F410C093DE06C054D1A02E002309F014
:1405840005C0A89550D1A02E0023B1F7BFDE08EE13E04BD105
:14059800A9900895AA9244D1002309F017C004E610E041D149
:1405AC003FD1002309F410C091DE06C037D1A02E002309F014
:1405C00005C0A89533D1A02E0023B1F7A1DE08EE13E02DD122
:1405D400A99008952A9740906A0050906B002090680030901F
:1405E80069002E823F824886598688E890E0FE0106E010E0C3
:1405FC00FA93EA939A938A934AD388E10E94F8063AD30983D8
:140610000E942D071201442455242A8288E00E94F8062FD356
:140624000B830E942D072C8226E08E0190D12A960895A89520
:140638008FE181BD8FE081BD0895A895D89817CFA895D89A74
:14064C000895EDD2A22E6801E199FECFDFBACEBAADBAE29ABA
:14066000F894E19A789401E010E0E1D0D0C2E199FECF1FBB3E
:140674000EBBE09A0DB308950A921A922A923A924A925A923A
:140688008A929A920E941E070FB60A92AA92BA9280916D00E8
:14069C008330E1F0813069F481E090E0A0E0B0E00E948E06A1
:1406B000280E391E4A1E5B1E0E94B80628C081E090E0A0E02F
:1406C400B0E00E948E06281A390A4A0A5B0A0E94B8061BC0E3
:1406D800839B0DC081E090E0A0E0B0E00E948E06281A390A87
:1406EC004A0A5B0A0E94B8060CC081E090E0A0E0B0E00E9492
:140700008E06280E391E4A1E5B1E0E94B80681E090E0A0E032
:14071400B0E00E94D506280E391E4A1E5B1E30926100209281
:14072800600050926300409262008AB780648ABFB990A990F4
:14073C0009900FBE0E942807999089905990499039902990EC
:1407500019900990189583E085BF8BB780648BBF0895989BBF
:1407640002C0002701C001E00895999B02C0002701C001E09A
:1407780008959A9B02C0002701C001E008959B9B02C0002754
:14078C0001C001E0089520907000222029F022242092700037
:1407A00001E001C00027089520907100222011F001E001C0D9
:1407B4000027089520907200222029F022242092720001E0A5
:1407C80001C00027089520907300222029F0222420927300AF
:1407DC0001E001C00027089520907400222029F0222420922C
:1407F000740001E001C00027089520907500222029F0222455
:140804002092750001E001C00027089520907700222029F0D1
:1408180022242092770001E001C0002708959DCFA2CFA7CFA4
:14082C00ACCF02D266277727442755270CC06627772702C09E
:140840006F5F7F4F6537E4E07E07D0F3A8954F5F5F4F401770
:14085400510788F3F0C1BD9ABF9ABC9A81E58DB90895000FAE
:14086800111F000F111FC4981801232C33242FB8779BFECF2C
:14087C000FB9779BFECFC49A089506EB13E0EDCF0CE612E042
:14089000EACF06E311E0E7CF00271127E4CF2A923A928A9354
:1408A4009A93EA93FA932FB62A92579820908E003324822D35
:1408B8008F5F80938E008FE890E0E22DFF27E80FF91F2CB096
:1408CC002082579A29902FBEF991E991999189913990299015
:1408E0001895222420928E00089500918E000895A9D15801A5
:1408F40022242AB82BB886E880BD15014424552440E251EAE6
:1409080067E070E05A924A923A922A928A019B011ED141E0BD
:14091C0050E060E070E018012901241A350A460A570A510144
:1409300029B8232C332420BC88E98AB980E88FBF899A85C17D
:140944005D9BFECF0CB95E9BFECF5E9A089569D1C22E780117
:14095800AA2407C0EA2DFF27EE0DFF1D0081EEDFA394AC145D
:14096C00B8F352C1AA924A934FEFAA2426C08FE890E0EA2DB0
:140980000E94C1068337F1F480E990E0EA2D0E94C106843747
:14099400B9F481E990E0EA2D0E94C106813681F482E990E041
:1409A800EA2D0E94C106823749F483E990E0EA2D0E94C10669
:1409BC00843711F44A2D06C0A394802F8450A81608F4D5CF12
:1409D000042F4991A99008952DD187DF602F4FEF093008F4CA
:1409E400B1C084E1861720F4222420928E00AAC08EE890E0A2
:1409F800E62F0E94C106843609F0A1C08DE890E0E62F0E94BD
:140A0C00C1068E3609F099C08CE890E0E62F0E94C1068536DC
:140A200009F091C0062FA4DF402F0F3F09F489C084E990E0E0
:140A3400E42FFF27E80FF91F608177276130E0E07E0741F1DF
:140A48006230E0E07E0709F459C06330E0E07E0709F458C0C0
:140A5C006430E0E07E0709F457C06630E0E07E0709F45BC0A6
:140A70006730E0E07E0709F45FC06830E0E07E0709F45EC082
:140A84006130E0E07E070CF45AC06131E0E07E0751F055C041
:140A980085E90E94A90620926D0081E0809370004CC085E90E
:140AAC000E94A9063324442455243092690020926800509286
:140AC0006B0040926A0088E090E0810192018A93CED00E9431
:140AD400DE0686E90E9465060E940E07C6D00E94DE0687E96B
:140AE8000E9465060E940E07BED00E94DE0688E90E946506A4
:140AFC0081E0809371001FC081E0809372001BC081E08093ED
:140B1000730017C085E90E94A90620926E0081E080937400C0
:140B24000EC085E90E94A90620926C0081E08093770005C062
:140B380081E08093750001C04BDDCFDE01C0CDDE78C0E8940A
:140B4C0001C068942DD0CC2408C0E89401C0689427D037FDBF
:140B60007DD0B7FD4BD0772488249924AA24BB243BD0B1F008
:140B74003ED0A1F0E8E20E942307771C881C991CAA1CBB1CAF
:140B880088169906AA06BB0628F0881A990AAA0ABB0A03953D
:140B9C00EA9569F726F4082D192D2A2D3B2D11C07A928A9219
:140BB0009A92AA92BA92CA92EA930E941E078B859C85AD857A
:140BC400BE85C32E0EF0CB260895C7FC45D00E942807E9913A
:140BD800C990B990A99099908990799024960895E02FE12B71
:140BEC00E22BE32B0895E82FE92BEA2BEB2B08958095909510
:140C0000A095B0958F5F9F4FAF4FBF4F08950E941907089582
:140C14000E941907E990F99008957A936A935A934A93FA920B
:140C2800EA92DA92CA92BA92AA9208950E9409070895499126
:140C3C0059916991799108950E940907BA92AA920895A99009
:140C5000B9904991599169917991089500951095209530952E
:140C64000F5F1F4F2F4F3F4F08950F920990002021F00E94EA
:140C780023070A94FACF0F9008950F920990002031F0369555
:140C8C002795179507950A94F8CF0F900895AA93BA93EA93A8
:140CA000FA930A92AF81B885ED81FE810030010729F00190DB
:140CB4000D9201501040F8CF0990F991E991B991A99124964A
:140CC800089590E0E42FFF27E80FF91F2080332444245524EB
:140CDC0038014901620C731C841C951C70926900609268006E
:140CF00090926B0080926A00089540906A0050906B00209015
:140D04006800309069008090660090906700609064007090F9
:140D180065000895409066005090670020906400309065000F
:140D2C000895A02E2A2C332444245524688079808A809B80B4
:140D4000620C731C841C951C688279828A829B82089590E036
:140D5400E42FFF27E80FF91F2080089588E090E0088119810B
:140D68002A813B818A930895309265002092640050926700D0
:140D7C00409266000895FF27E80FF91F808108950883198394
:140D90002A833B83288039804A805B80222D089508831983CB
:140DA4002A833B8308954090620050906300209060003090EE
:140DB80061000895109369000093680030936B0020936A00D7
:140DCC00089580E0888389838A838B83089590E020916600C0
:140DE0003091670000916400109165008A93089590E00E8123
:140DF4001F81288539858A930895621473048404950408957B
:140E0800288239824A825B8208957A936A935A934A930895BA
:140E1C0088E090E0830194018A9308952614370448045904F9
:140E30000895A990B990C990D99008958A939A93AA93BA935C
:140E44000895000F111F221F331F0895B991A99199918991C6
:0C0E580008952E803F804884598408953E
:00000001FF
