:080000000C943E000C94F20286
:04002C000C94030429
:14005400000000000000000000000000000301000000000094
:1400680000000041434B73746172740000000000656E640050
:14007C00CFE5D4E0CDBFDEBFC051D0400AEA08830024E8E84B
:14009000F0E011E0E838F10711F00192FBCF0083E4E5F0E009
:1400A400A0E6B0E010E000E00BBFEC37F10721F0C895319648
:1400B8000D92F9CF01D0FFCF2497AA240E947B06442755279B
:1400CC00A5D1F7D278D300E815E2C0D369D200ED17E05BD3D7
:1400E00041D1109365000093640030936700209366009ED149
:1400F40099C001D3002319F05DD2A3D15ED206D3002309F0D7
:14010800B5D10AD3C02E002319F052D26DD153D20ED3C02E10
:14011C00002319F04BD28CD14CD228D3C02E002319F044D2E0
:1401300065D145D20BD3C02E002319F03DD2DED13ED20FD3C6
:14014400C02E002319F036D2F0D137D21ED3C02E002339F090
:1401580080916D00813011F0833009F4A6D014D3C02E002345
:14016C0081F080916D00823011F0833051F49BD080E0809307
:14018000640080936500809366008093670001D3C02E0023B7
:1401940019F010D2DDD111D2FBD2C02E002319F009D2ECD15C
:1401A8000AD253D3C02E002341F04FD3C02EA01621F4C2D38F
:1401BC00AA2445D303C047D3C02EAC2C0E946406889422203C
:1401D000320442045204E1F0688079808A809B800E948C063E
:1401E400A9F44F5F5F4F4436E0E05E0798F081D080E0809323
:1401F80060008093610080936200809363000E947B064427A6
:14020C00552704C00E9464060E9496060EE110E0BCD2C89986
:1402200002C0D89A01C0D89866CF2496089523E007E710E0F8
:1402340042C320906D0020927F0088E10E948106CAD40093A0
:1402480080000E9422061201442455242092810088E00E9427
:14025C008106BDD4009382000E9422062092830008958FD264
:14027000002309F00CC0C2D0DA9A04E610E08BD2D99804E6FA
:1402840010E087D281E080936D0008957FD2002309F00CC066
:14029800B1D0D99A04E610E07AD2DA9804E610E076D282E042
:1402AC0080936D000895A6D2D99A01E010E06DD2DA9A01E0D1
:1402C00010E069D283E080936D0003D000E213E062C222240A
:1402D400209275002092720020926F00209270002092730063
:1402E800209276002092740020927100089524970E947B0616
:1402FC000E9422060E94960695D0A895288039804A805B803E
:14031000222D04E010E055D10E9444065ED40E945A0603E08D
:1403240010E04DD10E94440656D40E945A0602E010E045D1B7
:140338000E9444064ED40E945A0601E010E03DD12227002752
:14034C00112739D1222700E011E035D122270FEF11E031D101
:1403600024960895AA9224970E947B060027112732D1002393
:1403740009F035C000E011E02CD1002309F02FC00FEF11E0BF
:1403880026D1A02E002309F028C001E010E01FD1A02E2A2CB3
:14039C003324442455240E9496060E9444060DD40E947606EC
:1403B00002E010E010D10E942B060E94440603D40E947606D2
:1403C40003E010E006D10E942B060E944406F9D30E947606D2
:1403D80004E010E0FCD00E942B06088119812A813B8124965A
:1403EC00A99008951EDF4EDF84E080936D00089580916C00FF
:14040000823011F4F4D107C080916C00813011F4F1D101C0EF
:14041400F2D10BCF8FEF8ABB8BBBDF98222424BA85BB8A9831
:140428008B98929893980895DF9A02E310E0AFD1DF980895C9
:14043C00FCDE2DE00AE710E03AC280916D00833011F431DFA2
:140450000FC080916D00813031F499D1002309F008C005DF43
:1404640005C094D1002309F002C010DFDEDE089593D38091BD
:140478006D00813029F40E94F9050E948C0648F480916D00A7
:14048C00823039F40E94F9050E949B0610F00BDF2EC08091B1
:1404A0006D00833009F029C0C2DE40E05FEF6FEF7FEF0E94CA
:1404B4002206421553056405750578F40E94F9050E948C063A
:1404C80010F4E2DE16C00E94F9050E949B0608F0E0CFC9DE55
:1404DC000EC00E94F9050E948C0610F4C2DE07C00E94F9055F
:1404F0000E949B0608F0D1CFCBDE55C34A935A9340916E0053
:1405040055274130E0E05E0729F04230E0E05E0719F007C051
:14051800DD9805C0DD9804E610E039D1DD9A83DE59914991A0
:14052C0008954A935A9340916E0055274130E0E05E0729F0EA
:140540004230E0E05E0711F001C0DD9A70DE59914991089528
:14055400AA921BD1002309F00FC087DE05C015D1002309F054
:1405680005C0A89512D1A02E0023B9F79EDE08EE13E00DD1B6
:14057C00A9900895AA9206D1002309F00FC082DE05C000D1A1
:14059000002309F005C0A895FDD0A02E0023B9F788DE08EE6F
:1405A40013E0F7D0A9900895A8958FE181BD8FE081BD08957E
:1405B800A895D89839CFD89A0895E199FECF1FBB0EBB2DBB99
:1405CC00E29AF894E19A78940895E199FECF1FBB0EBBE09A8B
:1405E0000DB308950A921A922A923A924A925A928A929A92CA
:1405F4000E94B0060FB60A92AA92BA9280916D008330E1F0B0
:14060800813069F481E090E0A0E0B0E00E942206280E391E98
:14061C004A1E5B1E0E944C0628C081E090E0A0E0B0E00E948A
:140630002206281A390A4A0A5B0A0E944C061BC0839B0DC096
:1406440081E090E0A0E0B0E00E942206281A390A4A0A5B0AB9
:140658000E944C060CC081E090E0A0E0B0E00E942206280EED
:14066C00391E4A1E5B1E0E944C0681E090E0A0E0B0E00E94CB
:140680006406280E391E4A1E5B1E3092610020926000509277
:140694006300409262008AB780648ABFB990A99009900FBE65
:1406A8000E94A6069990899059904990399029901990099028
:1406BC00189583E085BF8BB780648BBF0895989B02C00027AD
:1406D00001C001E00895999B02C0002701C001E008959A9B46
:1406E40002C0002701C001E008959B9B02C0002701C001E019
:1406F800089520906F00222029F0222420926F0001E001C0CE
:14070C000027089520907000222011F001E001C0002708954C
:1407200020907100222029F022242092710001E001C0002717
:14073400089520907200222029F022242092720001E001C08B
:140748000027089520907300222029F022242092730001E00F
:14075C0001C00027089520907400222029F022242092740019
:1407700001E001C00027089520907600222029F02224209296
:14078400760001E001C0002708959DCFA2CFA7CFACCFFAD1EC
:1407980066277727442755270CC06627772702C06F5F7F4FE6
:1407AC006537E4E07E07D0F3A8954F5F5F4F4017510788F3CE
:1407C000E8C1BD9ABF9ABC9A81E58DB90895000F111F000FDF
:1407D400111FC4981801232C33242FB8779BFECF0FB9779B26
:1407E800FECFC49A089506EB13E0EDCF0CE612E0EACF06E30F
:1407FC0011E0E7CF00271127E4CF2A923A928A939A93EA93E1
:14081000FA932FB62A925798209087003324822D8F5F809379
:14082400870088E890E0E22DFF27E80FF91F2CB02082579AA6
:1408380029902FBEF991E99199918991399029901895222449
:14084C00209287000895009187000895A1D1580122242AB81A
:140860002BB886E880BD15014424552440E251EA67E070E00B
:140874005A924A923A922A928A019B0117D141E050E060E080
:1408880070E018012901241A350A460A570A510129B8232C19
:14089C00332420BC88E98AB980E88FBF899A7DC15D9BFECF85
:1408B0000CB95E9BFECF5E9A089561D1C22E7801AA2407C0E4
:1408C400EA2DFF27EE0DFF1D0081EEDFA394AC14B8F348C1D3
:1408D800AA924A934FEFAA2426C088E890E0EA2D0E9455060D
:1408EC008337F1F489E890E0EA2D0E9455068437B9F48AE88A
:1409000090E0EA2D0E945506813681F48BE890E0EA2D0E9497
:140914005506823749F48CE890E0EA2D0E945506843711F4C6
:140928004A2D06C0A394802F8450A81608F4D5CF042F499159
:14093C00A990089525D187DF602F4FEF093008F4AAC084E1A4
:14095000861720F4222420928700A3C087E890E0E62F0E946A
:140964005506843609F09AC086E890E0E62F0E9455068E3663
:1409780009F092C085E890E0E62F0E945506853609F08AC033
:14098C00062FA4DF402F0F3F09F482C08DE890E0E42FFF2785
:1409A000E80FF91F608177276130E0E07E0719F16230E0E083
:1409B4007E0709F454C06330E0E07E0709F453C06430E0E05D
:1409C8007E0709F452C06630E0E07E0709F456C06730E0E042
:1409DC007E0709F45AC06130E0E07E070CF458C06131E0E02B
:1409F0007E0751F053C08EE80E943D0620926D0081E080932C
:140A04006F004AC08EE80E943D0633244424552430926900A7
:140A18002092680050926B0040926A0088E090E0810192013A
:140A2C008A93CBD00E946D068FE80E940A060E94A006C3D0E5
:140A40000E946D0680E90E940A060E94A006BBD00E946D068A
:140A540081E90E940A0681E0809370001DC081E080937100CC
:140A680019C081E08093720015C08EE80E943D0620926E006B
:140A7C0081E0809373000CC08EE80E943D0620926C0081E0D9
:140A90008093760003C081E080937400D6DE01C0D4DE77C0C0
:140AA400E89401C068942DD0CC2408C0E89401C0689427D020
:140AB80037FD7CD0B7FD4BD0772488249924AA24BB243BD01F
:140ACC00B1F03ED0A1F0E8E20E94AB06771C881C991CAA1C07
:140AE000BB1C88169906AA06BB0628F0881A990AAA0ABB0AA7
:140AF4000395EA9569F726F4082D192D2A2D3B2D11C07A9246
:140B08008A929A92AA92BA92CA92EA930E94B0068B859C85A7
:140B1C00AD85BE85C32E0EF0CB260895C7FC44D00E94A606AE
:140B3000E991C990B990A99099908990799024960895E02FAB
:140B4400E12BE22BE32B0895E82FE92BEA2BEB2B08958095D1
:140B58009095A095B0958F5F9F4FAF4FBF4F0895A990B990E3
:140B6C00C990D990E990F99008957A936A935A934A93FA92B4
:140B8000EA92DA92CA92BA92AA9208950E9491060895499148
:140B940059916991799108950E949106BA92AA920895A9902B
:140BA800B990499159916991799108950095109520953095D7
:140BBC000F5F1F4F2F4F3F4F08950F920990002021F00E9493
:140BD000AB060A94FACF0F9008950F920990002031F0369577
:140BE4002795179507950A94F8CF0F90089540906A0050903E
:140BF8006B0020906800309069008090660090906700609050
:140C0C00640070906500089590E0E42FFF27E80FF91F208016
:140C200033244424552438014901620C731C841C951C7092B5
:140C340069006092680090926B0080926A000895409066000D
:140C48005090670020906400309065000895A02E2A2C332400
:140C5C0044245524688079808A809B80620C731C841C951C4F
:140C7000688279828A829B82089590E0E42FFF27E80FF91F0D
:140C84002080089588E090E0088119812A813B818A93089503
:140C9800309265002092640050926700409266000895FF27C7
:140CAC00E80FF91F80810895088319832A833B832880398094
:140CC0004A805B80222D08954090620050906300209060000A
:140CD400309061000895109369000093680030936B00209366
:140CE8006A000895088319832A833B83089580E0888389834B
:140CFC008A838B83089590E020916600309167000091640088
:140D1000109165008A930895621473048404950408957A9357
:140D24006A935A934A930895288239824A825B820895261472
:140D3800370448045904089588E090E0830194018A9308957B
:140D4C00B991A991999189910895000F111F221F331F0895BF
:0A0D60008A939A93AA93BA93089518
:00000001FF
