:080000000C943E000C94FE027A
:04002C000C940F041D
:14005400000000000000000000000000000301000000000094
:1400680000000041434B73746172740000000000656E640050
:14007C00CFE5D4E0CDBFDEBFC051D0400AEA08830024E8E84B
:14009000F0E011E0E838F10711F00192FBCF0083E4E5F0E009
:1400A400A0E6B0E010E000E00BBFEC37F10721F0C895319648
:1400B8000D92F9CF01D0FFCF2497AA240E9492064427552784
:1400CC00A1D103D384D300E815E2CCD375D200ED17E067D39E
:1400E0003DD1109365000093640030936700209366009AD151
:1400F40095C00DD3002319F069D29FD16AD212D3002309F0AF
:14010800B1D116D3C02E002319F05ED269D15FD21AD3C02EE8
:14011C00002319F057D288D158D234D3C02E002319F050D2B4
:1401300061D151D217D3C02E002319F049D2DAD14AD21BD392
:14014400C02E002319F042D2ECD143D22AD3C02E002329F080
:1401580080916D00823009F0A4D022D3C02E002371F080917E
:14016C006D00813051F09BD080E08093640080936500809353
:1401800066008093670011D3C02E002319F020D2DDD121D2FA
:140194000BD3C02E002319F019D2F4D11AD263D3C02E00237C
:1401A80041F05FD3C02EA01621F4D2D3AA2455D303C057D39F
:1401BC00C02EAC2C0E94750688942220320442045204E1F04B
:1401D000688079808A809B800E949806A9F44F5F5F4F443662
:1401E400E0E05E0798F081D080E080936000809361008093AF
:1401F8006200809363000E9492064427552704C00E94750619
:14020C000E94A2060EE110E0CCD2C89902C0D89A01C0D89851
:140220006ACF2496089523E007E710E052C320906D00209275
:140234007F0088E10E948706DAD4009380000E942E061201F5
:14024800442455242092810088E00E948706CDD40093820041
:14025C000E942E062092830008959FD2002309F00CC0C2D0FB
:14027000DA9A04E610E09BD2D99804E610E097D281E0809397
:140284006D0008958FD2002309F00CC0B1D0D99A04E610E045
:140298008AD2DA9804E610E086D282E080936D000895B6D24B
:1402AC00D99A01E010E07DD2DA9A01E010E079D283E08093A5
:1402C0006D0003D000E213E072C22224209275002092720050
:1402D40020926F002092700020927300209276002092740060
:1402E80020927100089524970E9492060E942E060E94A2062D
:1402FC0095D0A895288039804A805B80222D04E010E065D1ED
:140310000E9449066ED40E94660603E010E05DD10E944906A6
:1403240066D40E94660602E010E055D10E9449065ED40E94C0
:14033800660601E010E04DD122270027112749D1222700E06B
:14034C0011E045D122270FEF11E041D124960895AA922497FE
:140360000E9492060027112742D1002309F035C000E011E0FB
:140374003CD1002309F02FC00FEF11E036D1A02E002309F07D
:1403880028C001E010E02FD1A02E2A2C3324442455240E94AA
:14039C00A2060E9449061DD40E94700602E010E020D10E9446
:1403B00037060E94490613D40E94700603E010E016D10E94B0
:1403C40037060E94490609D40E94700604E010E00CD10E94AF
:1403D8003706088119812A813B812496A99008951EDF4EDF90
:1403EC0084E080936D00089580916C00823011F404D207C0AB
:1404000080916C00813011F401D201C002D20BCF8FEF8ABBB0
:140414008BBBDF98222424BA85BB8A988B989298939808957C
:14042800DF9A02E310E0BFD1DF980895FCDE2DE00AE710E006
:14043C004AC280916D00833011F431DF0FC080916D0081305C
:1404500031F4A9D1002309F008C005DF05C0A4D1002309F0DB
:1404640002C010DFDEDE0895A3D380916D00813029F40E9416
:1404780005060E94980648F480916D00823039F40E940506DF
:14048C000E94A70610F00BDF2EC080916D00833009F029C022
:1404A000C2DE40E05FEF6FEF7FEF0E942E0642155305640580
:1404B400750578F40E9405060E94980610F4E2DE16C00E9425
:1404C80005060E94A70608F0E0CFC9DE0EC00E9405060E945B
:1404DC00980610F4C2DE07C00E9405060E94A70608F0D1CF6F
:1404F000CBDE65C34A935A9340916E0055274130E0E05E070C
:1405040029F04230E0E05E0719F007C0DD9805C0DD9804E6CA
:1405180010E049D1DD9A83DE5991499108954A935A934091F1
:14052C006E0055274130E0E05E0729F04230E0E05E0711F08A
:1405400001C0DD9A70DE599149910895AA922BD1002309F06C
:1405540017C004E610E029D126D1002309F410C080DE06C0DD
:140568001ED1A02E002309F005C0A8951AD1A02E0023B1F720
:14057C0096DE08EE13E015D1A9900895AA920ED1002309F01B
:1405900017C004E610E00BD109D1002309F410C073DE06C0E9
:1405A40001D1A02E002309F005C0A895FDD0A02E0023B1F71F
:1405B80078DE08EE13E0F7D0A9900895A8958FE181BD8FE0F9
:1405CC0081BD0895A895D89829CFD89A0895E199FECF1FBB6B
:1405E0000EBB2DBBE29AF894E19A78940895E199FECF1FBB09
:1405F4000EBBE09A0DB308950A921A922A923A924A925A92BB
:140608008A929A920E94BC060FB60A92AA92BA9280916D00CB
:14061C008330E1F0813069F481E090E0A0E0B0E00E942E0681
:14063000280E391E4A1E5B1E0E94580628C081E090E0A0E00F
:14064400B0E00E942E06281A390A4A0A5B0A0E9458061BC023
:14065800839B0DC081E090E0A0E0B0E00E942E06281A390A67
:14066C004A0A5B0A0E9458060CC081E090E0A0E0B0E00E9472
:140680002E06280E391E4A1E5B1E0E94580681E090E0A0E073
:14069400B0E00E947506280E391E4A1E5B1E30926100209262
:1406A800600050926300409262008AB780648ABFB990A99075
:1406BC0009900FBE0E94B206999089905990499039902990E4
:1406D00019900990189583E085BF8BB780648BBF0895989B40
:1406E40002C0002701C001E00895999B02C0002701C001E01B
:1406F80008959A9B02C0002701C001E008959B9B02C00027D5
:14070C0001C001E0089520906F00222029F0222420926F00B9
:1407200001E001C00027089520907000222011F001E001C05A
:140734000027089520907100222029F022242092710001E027
:1407480001C00027089520907200222029F022242092720031
:14075C0001E001C00027089520907300222029F022242092AD
:14077000730001E001C00027089520907400222029F02224D7
:140784002092740001E001C00027089520907600222029F054
:1407980022242092760001E001C0002708959DCFA2CFA7CF26
:1407AC00ACCFFAD166277727442755270CC06627772702C028
:1407C0006F5F7F4F6537E4E07E07D0F3A8954F5F5F4F4017F1
:1407D400510788F3E8C1BD9ABF9ABC9A81E58DB90895000F37
:1407E800111F000F111FC4981801232C33242FB8779BFECFAD
:1407FC000FB9779BFECFC49A089506EB13E0EDCF0CE612E0C3
:14081000EACF06E311E0E7CF00271127E4CF2A923A928A93D4
:140824009A93EA93FA932FB62A925798209087003324822DBC
:140838008F5F8093870088E890E0E22DFF27E80FF91F2CB024
:14084C002082579A29902FBEF991E991999189913990299095
:1408600018952224209287000895009187000895A1D158013B
:1408740022242AB82BB886E880BD15014424552440E251EA66
:1408880067E070E05A924A923A922A928A019B0117D141E045
:14089C0050E060E070E018012901241A350A460A570A5101C5
:1408B00029B8232C332420BC88E98AB980E88FBF899A7DC106
:1408C4005D9BFECF0CB95E9BFECF5E9A089561D1C22E7801A0
:1408D800AA2407C0EA2DFF27EE0DFF1D0081EEDFA394AC14DE
:1408EC00B8F348C1AA924A934FEFAA2426C088E890E0EA2D42
:140900000E9461068337F1F489E890E0EA2D0E94610684377F
:14091400B9F48AE890E0EA2D0E946106813681F48BE890E011
:14092800EA2D0E946106823749F48CE890E0EA2D0E946106A1
:14093C00843711F44A2D06C0A394802F8450A81608F4D5CF92
:14095000042F4991A990089525D187DF602F4FEF093008F452
:14096400AAC084E1861720F4222420928700A3C087E890E03E
:14097800E62F0E946106843609F09AC086E890E0E62F0E94AB
:14098C0061068E3609F092C085E890E0E62F0E94610685362B
:1409A00009F08AC0062FA4DF402F0F3F09F482C08DE890E067
:1409B400E42FFF27E80FF91F608177276130E0E07E0719F188
:1409C8006230E0E07E0709F454C06330E0E07E0709F453C04B
:1409DC006430E0E07E0709F452C06630E0E07E0709F456C031
:1409F0006730E0E07E0709F45AC06130E0E07E070CF458C012
:140A04006131E0E07E0751F053C08EE80E94510620926D0025
:140A180081E080936F004AC08EE80E94510633244424552436
:140A2C00309269002092680050926B0040926A0088E090E010
:140A4000810192018A93CBD00E947E068FE80E9416060E94D8
:140A5400AC06C3D00E947E0680E90E9416060E94AC06BBD01D
:140A68000E947E0681E90E94160681E0809370001DC081E00A
:140A7C008093710019C081E08093720015C08EE80E945106DF
:140A900020926E0081E0809373000CC08EE80E94510620925E
:140AA4006C0081E08093760003C081E080937400D6DE01C0C8
:140AB800D4DE77C0E89401C068942DD0CC2408C0E89401C016
:140ACC00689427D037FD7CD0B7FD4BD0772488249924AA2402
:140AE000BB243BD0B1F03ED0A1F0E8E20E94B706771C881C78
:140AF400991CAA1CBB1C88169906AA06BB0628F0881A990A91
:140B0800AA0ABB0A0395EA9569F726F4082D192D2A2D3B2D95
:140B1C0011C07A928A929A92AA92BA92CA92EA930E94BC06DB
:140B30008B859C85AD85BE85C32E0EF0CB260895C7FC44D0B7
:140B44000E94B206E991C990B990A9909990899079902496E9
:140B58000895E02FE12BE22BE32B0895E82FE92BEA2BEB2BC3
:140B6C00089580959095A095B0958F5F9F4FAF4FBF4F08959F
:140B8000A990B990C990D990E990F99008957A936A935A9387
:140B94004A93FA92EA92DA92CA92BA92AA9208950E949D0636
:140BA8000895499159916991799108950E949D06BA92AA926A
:140BBC000895A990B990499159916991799108950095109567
:140BD000209530950F5F1F4F2F4F3F4F08950F9209900020B8
:140BE40021F00E94B7060A94FACF0F9008950F920990002090
:140BF80031F036952795179507950A94F8CF0F900895409088
:140C0C006A0050906B00209068003090690080906600909048
:140C200067006090640070906500089590E0E42FFF27E80F63
:140C3400F91F208033244424552438014901620C731C841C9C
:140C4800951C709269006092680090926B0080926A0008957C
:140C5C00409066005090670020906400309065000895A02E63
:140C70002A2C332444245524688079808A809B80620C731CDF
:140C8400841C951C688279828A829B82089588E090E00881FF
:140C980019812A813B818A93089590E0E42FFF27E80FF91FD5
:140CAC00208008953092650020926400509267004092660039
:140CC0000895FF27E80FF91F80810895088319832A833B831E
:140CD400288039804A805B80222D0895088319832A833B8388
:140CE800089540906200509063002090600030906100089518
:140CFC00109369000093680030936B0020936A00089590E085
:140D1000209166003091670000916400109165008A930895DB
:140D240080E0888389838A838B83089562147304840495047E
:140D380008957A936A935A934A930895288239824A825B828B
:140D4C0008952614370448045904089588E090E0830194014A
:140D60008A930895B991A991999189910895000F111F221FE0
:0E0D7400331F08958A939A93AA93BA93089511
:00000001FF
