:080000000C943F000C94040372
:04002C000C94150417
:14005400000000000000000000000000000301030000000091
:140068000000000041434B73746172740000000000656E6450
:01007C000083
:14007E00CFE5D4E0CDBFDEBFC051D0400AEA08830024E9E848
:14009200F0E011E0E938F10711F00192FBCF0083E4E5F0E006
:1400A600A0E6B0E010E000E00BBFED37F10721F0C895319645
:1400BA000D92F9CF01D0FFCF2497AA240E949906442755277B
:1400CE00A8D108D389D300E815E2D1D374D200ED17E06CD382
:1400E20049D110936500009364003093670020936600A1D13C
:1400F6008EC012D3002319F068D2A6D169D217D3002309F0A5
:14010A00B0D11BD3C02E002319F05DD2E0D05ED21FD3C02E69
:14011E00002319F056D28FD157D223D3C02E002319F04FD2BF
:14013200E0D150D227D3C02E002319F048D2F2D149D236D3D1
:14014600C02E002329F080916D00823009F0ACD02ED3C02EE7
:14015A00002371F080916D00813051F080E0809364008093B3
:14016E00650080936600809367009AD01DD3C02E002319F0B1
:1401820026D2E3D127D217D3C02E002319F01FD2FAD120D212
:140196006FD3C02E002341F06BD3C02EA01621F4DED3AA245B
:1401AA0061D303C063D3C02EAC2C0E9485068894222032048D
:1401BE0042045204E1F0688079808A809B800E949F06A9F4D6
:1401D2004F5F5F4F4639E0E05E0798F090D080E0809360005E
:1401E6008093610080936200809363000E949906442755277E
:1401FA0004C00E9485060E94A9060EE110E0D8D2C89902C003
:14020E00D89A01C0D89871CF2496089523E008E710E05EC39F
:14022200AA92BA9220906F002092800088E10E948E06E5D497
:14023600009381000E9435061201442455242092820088E033
:14024A000E948E06D8D4009383000E94350620928400B9904C
:14025E00A9900895A7D2002309F00EC080916F00833009F027
:140272001DD0DA9A08E512E09FD2D998DC9881E080936F00FF
:14028600089595D2002309F00EC080916F00833009F00AD070
:14029A00D99A08E512E08CD2DA98DC9882E080936F00089539
:1402AE0080916F00833009F40FC0D99ADA9A08E512E07CD229
:1402C200DC9A83E080936F0080936D0006D004EF11E072D24F
:1402D6000895A0DFD6CF22242092760020927300209270009E
:1402EA00209271002092740020927700209275002092720043
:1402FE000895AA92BA9224970E9499060E9435060E94A9069D
:14031200A895288039804A805B80222D04E010E05BD10E94A3
:1403260057066BD40E946D0603E010E053D10E94570663D4E5
:14033A000E946D0602E010E04BD10E9457065BD40E946D0669
:14034E0001E010E043D12227002711273FD1222700E011E0E4
:140362003BD122270FEF11E037D165D02496B990A99008952D
:14037600AA9224970E949906002711273BD1002309F035C0BF
:14038A0000E011E035D1002309F02FC00FEF11E02FD1A02EC0
:14039E00002309F028C001E010E028D1A02E2A2C332444249A
:1403B20055240E94A9060E94570617D40E94770602E010E092
:1403C60019D10E943E060E9457060DD40E94770603E010E081
:1403DA000FD10E943E060E94570603D40E94770604E010E080
:1403EE0005D10E943E06088119812A813B812496A990089525
:140402000BDF80916C00823011F402D207C080916C008130FF
:1404160011F4FFD101C000D208958FEF8ABB8BBBDF98222407
:14042A0024BA85BB8A988B98929893980895DF9A02E310E01B
:14043E00BDD1DF980895EEDE2DE00BE710E048C2E5DE80916F
:140452006D00833011F42ADF07C080916D00813011F4FEDE91
:1404660001C00FDF0895AAD380916F00813029F40E940C06B7
:14047A000E949F0648F480916F00823039F40E940C060E9436
:14048E00AE0610F00DDF2EC080916F00833009F029C0BCDE1D
:1404A20040E05FEF6FEF7FEF0E94350642155305640575059D
:1404B60078F40E940C060E949F0610F4E2DE16C00E940C067D
:1404CA000E94AE0608F0E0CFC7DE0EC00E940C060E949F06B3
:1404DE0010F4C0DE07C00E940C060E94AE0608F0D1CFCBDE56
:1404F2006CC34A935A9390DE40916E0055274130E0E05E073E
:1405060029F04230E0E05E0719F007C0DD9805C0DD9808ECBE
:14051A0010E04ED1DD9A5991499108954A935A9377DE4091F6
:14052E006E0055274130E0E05E0729F04230E0E05E0711F088
:1405420001C0DD9A599149910895AA9231D1002309F017C0DB
:1405560004E610E02FD12CD1002309F410C07EDE06C024D1B3
:14056A00A02E002309F005C0A89520D1A02E0023B1F798DE91
:14057E0008EE13E01BD1A9900895AA9214D1002309F017C0AA
:1405920004E610E011D10FD1002309F410C073DE06C007D1DA
:1405A600A02E002309F005C0A89503D1A02E0023B1F77ADE90
:1405BA0008EE13E0FDD0A9900895A8958FE181BD8FE081BD09
:1405CE000895A895D89831CFD89A0895E6D2A22E6801E19955
:1405E200FECFDFBACEBAADBAE29AF894E19A789401E010E050
:1405F600E1D0C9C2E199FECF1FBB0EBBE09A0DB308950A9258
:14060A001A922A923A924A925A928A929A920E94C8060FB663
:14061E000A92AA92BA9280916D008330E1F0813069F481E033
:1406320090E0A0E0B0E00E943506280E391E4A1E5B1E0E9447
:140646005F0628C081E090E0A0E0B0E00E943506281A390A10
:14065A004A0A5B0A0E945F061BC0839B0DC081E090E0A0E0B5
:14066E00B0E00E943506280E391E4A1E5B1E0E945F060CC0CA
:1406820081E090E0A0E0B0E00E943506281A390A4A0A5B0A68
:140696000E945F0681E090E0A0E0B0E00E948506280E391EAE
:1406AA004A1E5B1E30926100209260005092630040926200AD
:1406BE008AB780648ABFB990A99009900FBE0E94BE06999043
:1406D2008990599049903990299019900990189583E085BF21
:1406E6008BB780648BBF0895989B02C0002701C001E0089598
:1406FA00999B02C0002701C001E008959A9B02C0002701C0B1
:14070E0001E008959B9B02C0002701C001E0089520907000DB
:14072200222029F022242092700001E001C0002708952090EA
:140736007100222011F001E001C00027089520907200222031
:14074A0029F022242092720001E001C000270895209073008F
:14075E00222029F022242092730001E001C0002708952090AB
:140772007400222029F022242092740001E001C000270895D2
:1407860020907500222029F022242092750001E001C00027A9
:14079A00089520907700222029F022242092770001E001C01B
:1407AE00002708959DCFA2CFA7CFACCFFBD166277727442743
:1407C20055270CC06627772702C06F5F7F4F6537E4E07E076D
:1407D600D0F3A8954F5F5F4F4017510788F3E9C1BD9ABF9A2F
:1407EA00BC9A81E58DB90895000F111F000F111FC498180169
:1407FE00232C33242FB8779BFECF0FB9779BFECFC49A0895D9
:1408120006EB13E0EDCF0CE612E0EACF06E311E0E7CF0027DE
:140826001127E4CF2A923A928A939A93EA93FA932FB62A9256
:14083A005798209088003324822D8F5F8093880089E890E013
:14084E00E22DFF27E80FF91F2CB02082579A29902FBEF991B3
:14086200E99199918991399029901895222420928800089578
:14087600009188000895A2D1580122242AB82BB886E880BD36
:14088A0015014424552440E251EA67E070E05A924A923A92DB
:14089E002A928A019B0117D141E050E060E070E01801290157
:1408B200241A350A460A570A510129B8232C332420BC88E9DE
:1408C6008AB980E88FBF899A7EC15D9BFECF0CB95E9BFECF73
:1408DA005E9A089562D1C22E7801AA2407C0EA2DFF27EE0D0C
:1408EE00FF1D0081EEDFA394AC14B8F34BC1AA924A934FEF87
:14090200AA2426C089E890E0EA2D0E9468068337F1F48AE814
:1409160090E0EA2D0E9468068437B9F48BE890E0EA2D0E9432
:14092A006806813681F48CE890E0EA2D0E946806823749F41E
:14093E008DE890E0EA2D0E946806843711F44A2D06C0A39465
:14095200802F8450A81608F4D5CF042F4991A990089526D1D6
:1409660087DF602F4FEF093008F4AAC084E1861720F422244F
:14097A0020928800A3C088E890E0E62F0E946806843609F014
:14098E009AC087E890E0E62F0E9468068E3609F092C086E87A
:1409A20090E0E62F0E946806853609F08AC0062FA4DF402F87
:1409B6000F3F09F482C08EE890E0E42FFF27E80FF91F608191
:1409CA0077276130E0E07E0719F16230E0E07E0709F454C0B3
:1409DE006330E0E07E0709F453C06430E0E07E0709F452C035
:1409F2006630E0E07E0709F456C06730E0E07E0709F45AC010
:140A06006130E0E07E070CF458C06131E0E07E0751F053C0C3
:140A1A008FE80E94500620926D0081E0809370004AC08FE8D5
:140A2E000E945006332444245524309269002092680050925D
:140A42006B0040926A0088E090E0810192018A93CCD00E94B1
:140A56007C0680E90E941D060E94B306C4D00E947C0681E95F
:140A6A000E941D060E94B306BCD00E947C0682E90E941D0678
:140A7E0081E0809371001DC081E08093720019C081E080936F
:140A9200730015C08FE80E94500620926E0081E08093740091
:140AA6000CC08FE80E94500620926C0081E08093770003C035
:140ABA0081E080937500D6DE01C0D4DE78C0E89401C06894A7
:140ACE002DD0CC2408C0E89401C0689427D037FD7DD0B7FDFA
:140AE2004BD0772488249924AA24BB243BD0B1F03ED0A1F0E9
:140AF600E8E20E94C306771C881C991CAA1CBB1C88169906F1
:140B0A00AA06BB0628F0881A990AAA0ABB0A0395EA9569F719
:140B1E0026F4082D192D2A2D3B2D11C07A928A929A92AA920E
:140B3200BA92CA92EA930E94C8068B859C85AD85BE85C32E83
:140B46000EF0CB260895C7FC45D00E94BE06E991C990B990B5
:140B5A00A99099908990799024960895E02FE12BE22BE32B76
:140B6E000895E82FE92BEA2BEB2B089580959095A095B0952F
:140B82008F5F9F4FAF4FBF4F08950E94B90608950E94B9067B
:140B9600E990F99008957A936A935A934A93FA92EA92DA9264
:140BAA00CA92BA92AA9208950E94A40608954991599169910F
:140BBE00799108950E94A406BA92AA920895A990B9904991AF
:140BD200599169917991089500951095209530950F5F1F4FF4
:140BE6002F4F3F4F08950F920990002021F00E94C3060A94DE
:140BFA00FACF0F9008950F920990002031F036952795179534
:140C0E0007950A94F8CF0F90089540906A0050906B00209060
:140C22006800309069008090660090906700609064007090DC
:140C36006500089590E0E42FFF27E80FF91F20803324442491
:140C4A00552438014901620C731C841C951C709269006092EF
:140C5E00680090926B0080926A0008954090660050906700F7
:140C720020906400309065000895A02E2A2C3324442455243C
:140C8600688079808A809B80620C731C841C951C6882798221
:140C9A008A829B82089590E0E42FFF27E80FF91F208008958B
:140CAE0088E090E0088119812A813B818A93089530926500EF
:140CC2002092640050926700409266000895FF27E80FF91FB5
:140CD60080810895088319832A833B83288039804A805B80D4
:140CEA00222D0895088319832A833B8308951093690000933C
:140CFE00680030936B0020936A00089540906200509063001D
:140D12002090600030906100089590E0209166003091670050
:140D260000916400109165008A93089580E0888389838A8380
:140D3A008B830895621473048404950408957A936A935A9358
:140D4E004A930895288239824A825B820895261437044804AB
:140D62005904089588E090E0830194018A930895A990B99056
:140D7600C990D9900895B991A991999189910895000F111F66
:100D8A00221F331F08958A939A93AA93BA930895B8
:00000001FF
