:080000000C9445000C946B0305
:04002C000C946004CC
:14005400000000000000000000000000010301030000000090
:140068000000000041434B4E414B43414B73746172740000DE
:0D007C00000000656E643A000000003A00CC
:14008A00CFE5D4E0CDBFDEBFC051D0400AEA08830024E5E93F
:14009E00F0E011E0E539F10711F00192FBCF0083E4E5F0E0FD
:1400B200A0E6B0E010E000E00BBFE938F10721F0C89531963C
:1400C6000D92F9CF01D0FFCF2497AA240E942E0744275527D9
:1400DA0065E0E2D14CD3CDD300E815E215D4D3D200ED17E00A
:1400EE00B0D383D110936500009364003093670020936600E5
:1401020008C0DAD104E610E0A2D3D6D104EF11E09ED3262ED7
:1401160033246150222099F795C049D3002319F0BAD2D3D12E
:14012A00BBD24ED3C02E002309F0DCD151D3C02E002319F01E
:14013E00AED222D1AFD255D3C02E002319F0A7D2BBD1A8D2F8
:1401520059D3C02E002319F0A0D2F3D1A1D25DD3C02E002369
:1401660019F099D205D29AD26CD3C02E002339F060916F00F5
:14017A00613011F0633009F4EBD062D3C02E002381F06091EC
:14018E006F00623011F0633051F480E0809364008093650034
:1401A2008093660080936700D7D04FD3C02E002319F073D22E
:1401B600F2D174D249D3C02E002319F06CD209D26DD2A1D32A
:1401CA00C02E002349F09DD3C02EA01629F4A8950FD4AA24B8
:1401DE0092D303C094D3C02EAC2C0E941B0788942220320460
:1401F20042045204E9F0688079808A809B800E943D07B1F4F3
:14020600A8954F5F5F4F4639E0E05E0798F0BAD080E0809322
:14021A0060008093610080936200809363000E942E074427CF
:14022E00552704C00E941B070E9447070EE110E008D3C899AD
:1402420002C0D89A01C0D8986ACF24960895A89523E008E784
:1402560010E08DC3A89523E00BE710E088C3A89523E00EE7B2
:14026A0010E083C3AA92BA9220906F00209286000E94B5060E
:14027E001201442455240E9429072092870088E090E02091E4
:1402920066003091670000916400109165008A932ED500931C
:1402A60088000E94C20620928900202E3324409087005524A2
:1402BA00420C531C209089003324420C531C40928A00B99081
:1402CE00A990089522242092760020927300209270002092DF
:1402E200710020927400209277002092750020927200089560
:1402F600A895A7D2002309F013C080916F00833009F028D02B
:14030A00DA9A08E512E09FD2D998DC9881E080936F0001C092
:14031E00A89594D20023E1F70895A8958FD2002309F013C003
:1403320080916F00833009F00FD0D99A08E512E086D2DA9890
:14034600DC9882E080936F0001C0A8957AD20023E1F7089569
:14035A00A89580916F00833009F40FC083E080936F0080935B
:14036E006D00B0DFD99ADA9A08E512E06AD2DC9A04EF11E023
:1403820066D2089564DFCFCF24970E942E070E94C2060E9413
:140396004707A895288039804A805B80222D04E010E07FD14F
:1403AA000E94E306A8D40E94110703E010E077D10E94E306D8
:1403BE00A0D40E94110702E010E06FD10E94E30698D40E9452
:1403D200110701E010E067D122270027112763D1222700E0F1
:1403E60011E05FD122270FEF11E05BD163D024960895AA92B8
:1403FA0024970E942E070027112761D1002309F035C000E0DB
:14040E0011E05BD1002309F02FC00FEF11E055D1A02E0023AC
:1404220009F028C001E010E04ED1A02E2A2C33244424552499
:140436000E9447070E94E30656D40E94240702E010E03FD15E
:14044A000E94CB060E94E3064CD40E94240703E010E035D1DA
:14045E000E94CB060E94E30642D40E94240704E010E02BD1D9
:140472000E94CB06088119812A813B812496A9900895E5DE26
:1404860080916C00823011F40CD207C080916C00813011F456
:14049A0009D201C00AD208958FEF8ABB8BBBDF98222424BA95
:1404AE0085BB8A988B98929893980895DF9A02E310E0C7D1DD
:1404C200DF980895D3DE2DE001E810E052C2BFDE80916D004C
:1404D600833011F43FDF07C080916D00813011F407DF01C09A
:1404EA001EDF089580916F00833089F4ACDE0E94A4060E943C
:1404FE003D0710F4F9DE1EC00E94A4060E945B0710F40BDFAF
:1405120017C022DF15C080916F00813039F40E94A4060E94DC
:140526003D0710F017DF0AC080916F00823031F40E94A4061A
:14053A000E945B0708F00CDF08954A935A9383DE40916E00BF
:14054E0055274130E0E05E0729F04230E0E05E0719F007C007
:14056200DD9805C0DD9808EC10E071D1DD9A599149910895D8
:140576004A935A936ADE40916E0055274130E0E05E0729F0F5
:14058A004230E0E05E0711F001C0DD9A599149910895AA92F0
:14059E0054D1002309F017C004E610E052D14FD1002309F4F4
:1405B20010C0A0DE06C047D1A02E002309F005C0A89543D109
:1405C600A02E0023B1F7C6DE08EE13E03ED1A9900895AA92DA
:1405DA0037D1002309F017C004E610E034D132D1002309F410
:1405EE0010C09BDE06C02AD1A02E002309F005C0A89526D10C
:14060200A02E0023B1F7A8DE08EE13E020D1A99008952A9754
:1406160040906A0050906B0020906800309069002E823F8299
:14062A00488659868EE890E0FE0106E010E0FA93EA939A931D
:14063E008A936BD3A8950E940C070E9451071201442455246D
:140652000E942907298288E090E00E811F81288539858A9388
:140666004CD30A830E9451072B822A80332449805524420C9C
:14067A00531C2B803324420C531C4C8226E08E0174D12A96D6
:14068E000895A8958FE181BD8FE081BD0895A895D8980CCFFE
:1406A200A895D89A0895FFD2A22E6801E199FECFDFBACEBA86
:1406B600ADBAE29AF894E19A789401E010E0C5D0E2C2E199B6
:1406CA00FECF1FBB0EBBE09A0DB308952A923A924A925A9285
:1406DE000A931A932A933A930E9465072FB62A9280916D0007
:1406F200833091F0813039F40E94B5060E9429070E94030707
:140706001AC00E94B506281A390A4A0A5B0A0E94030711C0ED
:14071A00839B07C00E94B5060E9429070E94030708C00E94A1
:14072E00B506281A390A4A0A5B0A0E9403070E940C070E94BB
:140742001B070E942907309261002092600050926300409263
:1407560062008AB780648ABF29902FBE0E946007399129918C
:14076A00199109915990499039902990189583E085BF8BB75D
:14077E0080648BBF0895989B02C0002701C001E00895999B0D
:1407920002C0002701C001E008959A9B02C0002701C001E06B
:1407A60008959B9B02C0002701C001E00895209070002220E2
:1407BA0029F022242092700001E001C0002708952090710023
:1407CE00222011F001E001C00027089520907200222029F0F1
:1407E20022242092720001E001C000270895209073002220CE
:1407F60029F022242092730001E001C00027089520907400E1
:14080A00222029F022242092740001E001C0002708952090FD
:14081E007500222029F022242092750001E001C00027089523
:1408320020907700222029F022242092770001E001C00027F8
:1408460008959DCFA2CFA7CFACCF30D266277727442755271F
:14085A000CC06627772702C06F5F7F4F6537E4E07E07D0F38D
:14086E00A8954F5F5F4F4017510788F31EC2BD9ABF9ABC9ACD
:1408820081E58DB90895000F111F000F111FC4981801232CD7
:1408960033242FB8779BFECF0FB9779BFECFC49A089506EB9E
:1408AA0013E0EDCF0CE612E0EACF06E311E0E7CF00271127FF
:1408BE00E4CF2A923A928A939A93EA93FA932FB62A92579807
:1408D200209094003324822D8F5F8093940085E990E0E22D46
:1408E600FF27E80FF91F2CB02082579A29902FBEF991E991B0
:1408FA009991899139902990189522242092940008950091BD
:14090E0094000895D7D1580122242AB82BB886E880BD1501D7
:140922004424552440E251EA67E070E05A924A923A922A929C
:140936008A019B014CD141E050E060E070E018012901241A07
:14094A00350A460A570A510129B8232C332420BC88E98AB940
:14095E0080E88FBF899AB3C15D9BFECF0CB95E9BFECF5E9AF0
:14097200089597D1C22E7801AA2407C0EA2DFF27EE0DFF1D1A
:140986000081EEDFA394AC14B8F380C1AA924A934FEFAA2407
:14099A0026C085E990E0EA2D0E94FE068337F1F486E990E04A
:1409AE00EA2D0E94FE068437B9F487E990E0EA2D0E94FE0673
:1409C200813681F488E990E0EA2D0E94FE06823749F489E9EF
:1409D60090E0EA2D0E94FE06843711F44A2D06C0A394802FFD
:1409EA008450A81608F4D5CF042F4991A990089563D187DF4A
:1409FE00602F4FEF093008F4DFC084E1861720F42224209236
:140A12009400D8C084E990E0E62F0E94FE06843609F0CFC0CA
:140A260083E990E0E62F0E94FE068E3609F0C7C082E990E006
:140A3A00E62F0E94FE06853609F0BFC0062FA4DF402F0F3F45
:140A4E0009F4B7C08AE90E94DD06A080BB24C5018130E0E0F2
:140A62009E0749F18230E0E09E0709F487C08330E0E09E072E
:140A760009F486C08430E0E09E0709F485C08630E0E09E07B3
:140A8A0009F48AC08730E0E09E0709F48FC08830E0E09E078C
:140A9E0009F48EC08130E0E09E070CF48AC0C5018131E0E061
:140AB2009E0759F084C08BE90E94DD06208020926D0081E0E5
:140AC600809370007AC0242E3324462E55242414350434F430
:140ADA00842D82198D3010F4BBDB6DC08CE90E94DD0620809E
:140AEE0033248BE90E94DD0640805524420C531C8DE90E9496
:140B0200DD0620803324420C531C20909E00421411F0A7DB21
:140B160054C08BE90E94DD068081992701971C01442437FCAD
:140B2A004094552447FC5094309269002092680050926B00B1
:140B3E0040926A0088E090E0810192018A93CFD00E943407E1
:140B52008CE90E94DD060E94EB0688E090E0830194018A93F4
:140B6600C2D00E9434078DE90E94DD060E94EB0681E080930A
:140B7A00710021C081E0809372001DC081E08093730019C092
:140B8E008BE90E94DD06208020926E0081E0809374000FC0E3
:140BA2008BE90E94DD06208020926C0081E08093770005C0D8
:140BB60081E08093750001C02ADDA1DE01C09FDE82C0E894FF
:140BCA0001C068942DD0CC2408C0E89401C0689427D037FD41
:140BDE007DD0B7FD4BD0772488249924AA24BB243BD0B1F08A
:140BF2003ED0A1F0E8E20E944C07771C881C991CAA1CBB1C08
:140C060088169906AA06BB0628F0881A990AAA0ABB0A0395BE
:140C1A00EA9569F726F4082D192D2A2D3B2D11C07A928A929A
:140C2E009A92AA92BA92CA92EA930E9465078B859C85AD85B4
:140C4200BE85C32E0EF0CB260895C7FC45D00E946007E99183
:140C5600C990B990A99099908990799024960895E02FE12BF2
:140C6A00E22BE32B0895E82FE92BEA2BEB2B08958095909591
:140C7E00A095B0958F5F9F4FAF4FBF4F08950E9456070895C7
:140C92000E945607E990F99008957A936A935A934A93FA9250
:140CA600EA92DA92CA92BA92AA9208950E944207089549916F
:140CBA0059916991799108950E944207BA92AA920895A99052
:140CCE00B990499159916991799108950095109520953095B0
:140CE2000F5F1F4F2F4F3F4F08950F920990002021F00E946C
:140CF6004C070A94FACF0F9008950F920990002031F03695AE
:140D0A002795179507950A94F8CF0F900895AA93BA93EA9329
:140D1E00FA930A92AF81B885ED81FE810030010729F001905C
:140D32000D9201501040F8CF0990F991E991B991A9912496CB
:140D4600089540906A0050906B002090680030906900809026
:140D5A006600909067006090640070906500089581E090E071
:140D6E00A0E0B0E040906600509067002090640030906500AB
:140D820008954090660050906700209064003090650008956D
:140D9600A02E2A2C332444245524688079808A809B80620C79
:140DAA00731C841C951C688279828A829B82089590E0E42F27
:140DBE00FF27E80FF91F089588E090E0088119812A813B81ED
:140DD2008A930895208033244424552438014901620C731CFB
:140DE600841C951C709269006092680090926B0080926A00DA
:140DFA000895FF27E80FF91F80810895309265002092640038
:140E0E005092670040926600089581E090E0A0E0B0E0089534
:140E2200088319832A833B83288039804A805B80222D089538
:140E36004090620050906300209060003090610008950883DA
:140E4A0019832A833B830895280E391E4A1E5B1E089580E085
:140E5E00888389838A838B83089510936900009368003093E7
:140E72006B0020936A000895621473048404950408957A938F
:140E86006A935A934A930895288239824A825B820895000F3A
:140E9A00111F221F331F08952E803F80488459840895A990F8
:140EAE00B990C990D990089526143704480459040895B99183
:120EC200A9919991899108958A939A93AA93BA93089592
:00000001FF
