:080000000C9442000C942E0345
:04002C000C943F04ED
:14005400000000000000000000000000010301030000000090
:140068000000000041434B73746172740000000000656E6450
:07007C003A000000003A0009
:14008400CFE5D4E0CDBFDEBFC051D0400AEA08830024EFE83C
:14009800F0E011E0EF38F10711F00192FBCF0083E4E5F0E0FA
:1400AC00A0E6B0E010E000E00BBFE338F10721F0C895319648
:1400C0000D92F9CF01D0FFCF2497AA240E94D7064427552737
:1400D400B4D12FD3B0D300E815E2F8D39AD200ED17E093D3AE
:1400E80055D110936500009364003093670020936600ADD11E
:1400FC0094C039D3002319F08ED2B2D18FD23ED3002309F0F3
:14011000BCD142D3C02E002319F083D202D184D246D3C02E9A
:14012400002319F07CD29BD17DD24AD3C02E002319F075D214
:14013800D7D176D24ED3C02E002319F06ED2E9D16FD25DD31D
:14014C00C02E002339F060916F00613011F0633009F4CBD048
:1401600053D3C02E002381F060916F00623011F0633051F418
:1401740080E080936400809365008093660080936700B7D0AE
:1401880040D3C02E002319F048D2D6D149D23AD3C02E00233C
:14019C0019F041D2EDD142D292D3C02E002349F08ED3C02E63
:1401B000A01629F4A89500D4AA2483D303C085D3C02EAC2C52
:1401C4000E94C00688942220320442045204E9F068807980D5
:1401D8008A809B800E94F906B1F4A8954F5F5F4F4639E0E0D0
:1401EC005E0798F09AD080E0809360008093610080936200EC
:14020000809363000E94D7064427552704C00E94C0060E9440
:14021400F4060EE110E0F9D2C89902C0D89A01C0D8986BCF32
:1402280024960895A89523E008E710E07EC320906F0020923A
:14023C00800088E10E94DD060ED5009381000E947E06120110
:14025000442455242092820088E00E94DD0601D500938300AC
:140264000E947E0620928400089522242092760020927300FA
:140278002092700020927100209274002092770020927500B7
:14028C00209272000895A895B8D2002309F013C080916F0067
:1402A000833009F028D0DA9A08E512E0B0D2D998DC9881E08B
:1402B40080936F0001C0A895A5D20023E1F70895A895A0D2F8
:1402C800002309F013C080916F00833009F00FD0D99A08E5C8
:1402DC0012E097D2DA98DC9882E080936F0001C0A8958BD28E
:1402F0000023E1F70895A89580916F00833009F40FC083E0C3
:1403040080936F0080936D00B0DFD99ADA9A08E512E07BD241
:14031800DC9A04EF11E077D2089584DFCFCF24970E94D70656
:14032C000E947E060E94F406A895288039804A805B80222D69
:1403400004E010E074D10E9499068BD40E94B60603E010E0BF
:140354006CD10E94990683D40E94B60602E010E064D10E94B9
:1403680099067BD40E94B60601E010E05CD12227002711278F
:14037C0058D1222700E011E054D122270FEF11E050D163D079
:1403900024960895AA9224970E94D7060027112756D10023E3
:1403A40009F035C000E011E050D1002309F02FC00FEF11E06B
:1403B8004AD1A02E002309F028C001E010E043D1A02E2A2C3B
:1403CC003324442455240E94F4060E94990639D40E94D20681
:1403E00002E010E034D10E9487060E9499062FD40E94D20645
:1403F40003E010E02AD10E9487060E94990625D40E94D20644
:1404080004E010E020D10E948706088119812A813B812496A8
:14041C00A990089505DF80916C00823011F41DD207C0809117
:140430006C00813011F41AD201C01BD208958FEF8ABB8BBB56
:14044400DF98222424BA85BB8A988B98929893980895DF9A19
:1404580002E310E0D8D1DF980895E9DE2DE00BE710E063C223
:14046C00DFDE80916D00833011F43FDF07C080916D00813075
:1404800011F407DF01C01EDF0895AA92BA9280916F00833067
:1404940089F4CADE0E946D060E94F90610F4F7DE1EC00E9420
:1404A8006D060E94040710F409DF17C020DF15C080916F0009
:1404BC00813039F40E946D060E94F90610F015DF0AC08091C9
:1404D0006F00823031F40E946D060E94040708F00ADFB990E6
:1404E400A99008954A935A939FDE40916E0055274130E0E0FB
:1404F8005E0729F04230E0E05E0719F007C0DD9805C0DD985C
:14050C0008EC10E07ED1DD9A5991499108954A935A9386DEA2
:1405200040916E0055274130E0E05E0729F04230E0E05E07C6
:1405340011F001C0DD9A599149910895AA9261D1002309F08F
:1405480017C004E610E05FD15CD1002309F410C09CDE06C061
:14055C0054D1A02E002309F005C0A89550D1A02E0023B1F7C0
:14057000C2DE08EE13E04BD1A9900895AA9244D1002309F08F
:1405840017C004E610E041D13FD1002309F410C097DE06C065
:1405980037D1A02E002309F005C0A89533D1A02E0023B1F7BE
:1405AC00A4DE08EE13E02DD1A99008952A9740906A00509021
:1405C0006B0020906800309069002E823F824886598688E8ED
:1405D40090E0FE0106E010E0FA93EA939A938A934AD388E1F4
:1405E8000E94E8063AD309830E941D071201442455242A8270
:1405FC0088E00E94E8062FD30B830E941D072C8226E08E015A
:1406100090D12A960895A8958FE181BD8FE081BD0895A895A6
:14062400D89817CFA895D89A0895EDD2A22E6801E199FECFE1
:14063800DFBACEBAADBAE29AF894E19A789401E010E0E1D015
:14064C00D0C2E199FECF1FBB0EBBE09A0DB308950A921A92FF
:140660002A923A924A925A928A929A920E9418070FB60A92CC
:14067400AA92BA9280916D008330E1F0813069F481E090E009
:14068800A0E0B0E00E947E06280E391E4A1E5B1E0E94AD0665
:14069C0028C081E090E0A0E0B0E00E947E06281A390A4A0A82
:1406B0005B0A0E94AD061BC0839B0DC081E090E0A0E0B0E0D5
:1406C4000E947E06280E391E4A1E5B1E0E94AD060CC081E00C
:1406D80090E0A0E0B0E00E947E06281A390A4A0A5B0A0E9488
:1406EC00AD0681E090E0A0E0B0E00E94C006280E391E4A1E09
:140700005B1E309261002092600050926300409262008AB77D
:1407140080648ABFB990A99009900FBE0E94130799908990BE
:14072800599049903990299019900990189583E085BF8BB7A1
:14073C0080648BBF0895989B02C0002701C001E00895999B4F
:1407500002C0002701C001E008959A9B02C0002701C001E0AD
:1407640008959B9B02C0002701C001E0089520907000222024
:1407780029F022242092700001E001C0002708952090710065
:14078C00222011F001E001C00027089520907200222029F033
:1407A00022242092720001E001C00027089520907300222010
:1407B40029F022242092730001E001C0002708952090740023
:1407C800222029F022242092740001E001C000270895209040
:1407DC007500222029F022242092750001E001C00027089566
:1407F00020907700222029F022242092770001E001C000273B
:1408040008959DCFA2CFA7CFACCF02D266277727442755278F
:140818000CC06627772702C06F5F7F4F6537E4E07E07D0F3CF
:14082C00A8954F5F5F4F4017510788F3F0C1BD9ABF9ABC9A3E
:1408400081E58DB90895000F111F000F111FC4981801232C19
:1408540033242FB8779BFECF0FB9779BFECFC49A089506EBE0
:1408680013E0EDCF0CE612E0EACF06E311E0E7CF0027112741
:14087C00E4CF2A923A928A939A93EA93FA932FB62A92579849
:1408900020908E003324822D8F5F80938E008FE890E0E22D8B
:1408A400FF27E80FF91F2CB02082579A29902FBEF991E991F2
:1408B80099918991399029901895222420928E000895009105
:1408CC008E000895A9D1580122242AB82BB886E880BD15014E
:1408E0004424552440E251EA67E070E05A924A923A922A92DF
:1408F4008A019B011ED141E050E060E070E018012901241A78
:14090800350A460A570A510129B8232C332420BC88E98AB982
:14091C0080E88FBF899A85C15D9BFECF0CB95E9BFECF5E9A60
:14093000089569D1C22E7801AA2407C0EA2DFF27EE0DFF1D8A
:140944000081EEDFA394AC14B8F352C1AA924A934FEFAA2477
:1409580026C08FE890E0EA2D0E94A8068337F1F480E990E0DF
:14096C00EA2D0E94A8068437B9F481E990E0EA2D0E94A80667
:14098000813681F482E990E0EA2D0E94A806823749F483E993
:1409940090E0EA2D0E94A806843711F44A2D06C0A394802F95
:1409A8008450A81608F4D5CF042F4991A99008952DD187DFC2
:1409BC00602F4FEF093008F4B1C084E1861720F422242092A6
:1409D0008E00AAC08EE890E0E62F0E94A806843609F0A1C0BC
:1409E4008DE890E0E62F0E94A8068E3609F099C08CE890E0BB
:1409F800E62F0E94A806853609F091C0062FA4DF402F0F3F0C
:140A0C0009F489C084E990E0E42FFF27E80FF91F60817727EC
:140A20006130E0E07E0741F16230E0E07E0709F459C063303A
:140A3400E0E07E0709F458C06430E0E07E0709F457C06630D1
:140A4800E0E07E0709F45BC06730E0E07E0709F45FC06830AD
:140A5C00E0E07E0709F45EC06130E0E07E070CF45AC06131A4
:140A7000E0E07E0751F055C085E90E94A10620926D0081E0A0
:140A8400809370004CC085E90E94A10633244424552430921E
:140A980069002092680050926B0040926A0088E090E08101E4
:140AAC0092018A93CED00E94C90686E90E9455060E94FE0665
:140AC000C6D00E94C90687E90E9455060E94FE06BED00E94D8
:140AD400C90688E90E94550681E0809371001FC081E0809399
:140AE80072001BC081E08093730017C085E90E94A106209286
:140AFC006E0081E0809374000EC085E90E94A10620926C00ED
:140B100081E08093770005C081E08093750001C04BDDCFDEA2
:140B240001C0CDDE78C0E89401C068942DD0CC2408C0E894AF
:140B380001C0689427D037FD7DD0B7FD4BD0772488249924A1
:140B4C00AA24BB243BD0B1F03ED0A1F0E8E20E940E07771C89
:140B6000881C991CAA1CBB1C88169906AA06BB0628F0881A23
:140B7400990AAA0ABB0A0395EA9569F726F4082D192D2A2DEE
:140B88003B2D11C07A928A929A92AA92BA92CA92EA930E94C9
:140B9C0018078B859C85AD85BE85C32E0EF0CB260895C7FC40
:140BB00045D00E941307E991C990B990A990999089907990C0
:140BC40024960895E02FE12BE22BE32B0895E82FE92BEA2BB3
:140BD800EB2B089580959095A095B0958F5F9F4FAF4FBF4FBA
:140BEC0008950E94090708950E940907E990F99008957A93AB
:140C00006A935A934A93FA92EA92DA92CA92BA92AA92089524
:140C14000E94EF060895499159916991799108950E94EF069C
:140C2800BA92AA920895A990B99049915991699179910895AC
:140C3C0000951095209530950F5F1F4F2F4F3F4F08950F92CA
:140C50000990002021F00E940E070A94FACF0F9008950F92CB
:140C64000990002031F036952795179507950A94F8CF0F90CF
:140C78000895AA93BA93EA93FA930A92AF81B885ED81FE8141
:140C8C000030010729F001900D9201501040F8CF0990F99148
:140CA000E991B991A9912496089590E0E42FFF27E80FF91F33
:140CB400208033244424552438014901620C731C841C951C83
:140CC800709269006092680090926B0080926A0008954090DD
:140CDC006A0050906B00209068003090690080906600909078
:140CF0006700609064007090650008954090660050906700B6
:140D040020906400309065000895A02E2A2C332444245524A9
:140D1800688079808A809B80620C731C841C951C688279828E
:140D2C008A829B82089588E090E0088119812A813B818A936E
:140D4000089590E0E42FFF27E80FF91F20800895FF27E80FF0
:140D5400F91F8081089530926500209264005092670040927D
:140D680066000895088319832A833B83288039804A805B80DC
:140D7C00222D089540906200509063002090600030906100D1
:140D90000895109369000093680030936B0020936A000895C3
:140DA400088319832A833B83089580E0888389838A838B837A
:140DB800089590E020916600309167000091640010916500E0
:140DCC008A93089590E00E811F81288539858A9308957A9388
:140DE0006A935A934A930895288239824A825B82089562147A
:140DF400730484049504089588E090E0830194018A9308950B
:140E080026143704480459040895A990B990C990D99008953A
:140E1C00000F111F221F331F0895B991A991999189910895EE
:140E30008A939A93AA93BA9308952E803F804884598408958A
:00000001FF
