:080000000C943E000C94F80280
:04002C000C94090423
:14005400000000000000000000000000000301000000000094
:1400680000000041434B73746172740000000000656E640050
:14007C00CFE5D4E0CDBFDEBFC051D0400AEA08830024E8E84B
:14009000F0E011E0E838F10711F00192FBCF0083E4E5F0E009
:1400A400A0E6B0E010E000E00BBFEC37F10721F0C895319648
:1400B8000D92F9CF01D0FFCF2497AA240E948C06442755278A
:1400CC009BD1FDD27ED300E815E2C6D36FD200ED17E061D3C3
:1400E00037D11093650000936400309367002093660094D15D
:1400F4008EC007D3002319F063D299D164D20CD3002309F0D4
:14010800ABD110D3C02E002319F058D263D159D214D3C02E0C
:14011C00002319F051D282D152D218D3C02E002319F04AD2E8
:14013000DBD14BD21CD3C02E002319F043D2EDD144D22BD302
:14014400C02E002329F080916D00823009F0A8D023D3C02EF8
:14015800002371F080916D00813051F09FD080E08093640059
:14016C0080936500809366008093670012D3C02E002319F015
:1401800021D2DED122D20CD3C02E002319F01AD2F5D11BD23D
:1401940064D3C02E002341F060D3C02EA01621F4D3D3AA247E
:1401A80056D303C058D3C02EAC2C0E946A06889422203204C0
:1401BC0042045204E1F0688079808A809B800E949206A9F4E5
:1401D0004F5F5F4F4639E0E05E0798F082D080E0809360006E
:1401E4008093610080936200809363000E948C06442755278D
:1401F80004C00E946A060E9497060EE110E0CDD2C89902C03D
:14020C00D89A01C0D89871CF2496089523E007E710E053C3AD
:1402200020906D0020927F0088E10E948106DBD40093800028
:140234000E9428061201442455242092810088E00E9481062E
:14024800CED4009382000E942806209283000895A0D20023B4
:14025C0009F00EC080916D00833009F01DD0DA9A08EE13E053
:1402700098D2D998DC9881E080936D0008958ED2002309F031
:140284000EC080916D00833009F00AD0D99A08EE13E085D2E1
:14029800DA98DC9882E080936D000895D99ADA9A08EE13E01D
:1402AC007AD2DC9A83E080936D0003D000E213E072C2222477
:1402C000209275002092720020926F00209270002092730077
:1402D400209276002092740020927100089524970E948C0619
:1402E8000E9428060E94970695D0A895288039804A805B804B
:1402FC00222D04E010E065D10E944A066ED40E94600603E076
:1403100010E05DD10E944A0666D40E94600602E010E055D18F
:140324000E944A065ED40E94600601E010E04DD1222700273A
:14033800112749D1222700E011E045D122270FEF11E041D1E5
:14034C0024960895AA9224970E948C060027112742D1002386
:1403600009F035C000E011E03CD1002309F02FC00FEF11E0C3
:1403740036D1A02E002309F028C001E010E02FD1A02E2A2CA7
:140388003324442455240E9497060E944A061DD40E947306EC
:14039C0002E010E020D10E9431060E944A0613D40E947306BD
:1403B00003E010E016D10E9431060E944A0609D40E947306BC
:1403C40004E010E00CD10E943106088119812A813B81249657
:1403D800A99008951DDF4FDF84E080936D00089580916C0013
:1403EC00823011F404D207C080916C00813011F401D201C0E2
:1404000002D20ACF8FEF8ABB8BBBDF98222424BA85BB8A9835
:140414008B98929893980895DF9A02E310E0BFD1DF980895CD
:14042800FBDE2DE00AE710E04AC280916D00833011F434DFA4
:14043C000FC080916D00813031F4A9D1002309F008C004DF48
:1404500005C0A4D1002309F002C011DFDDDE0895A3D38091B1
:140464006D00813029F40E94FF050E94920648F480916D00AF
:14047800823039F40E94FF050E949C0610F00EDF2EC08091BB
:14048C006D00833009F029C0C1DE40E05FEF6FEF7FEF0E94DF
:1404A0002806421553056405750578F40E94FF050E9492063C
:1404B40010F4E3DE16C00E94FF050E949C0608F0E0CFC8DE62
:1404C8000EC00E94FF050E94920610F4C1DE07C00E94FF0562
:1404DC000E949C0608F0D1CFCCDE65C34A935A9340916E0055
:1404F00055274130E0E05E0729F04230E0E05E0719F007C066
:14050400DD9805C0DD9804E610E049D1DD9A82DE59914991A5
:1405180008954A935A9340916E0055274130E0E05E0729F0FE
:14052C004230E0E05E0711F001C0DD9A6FDE5991499108953D
:14054000AA922BD1002309F017C004E610E029D126D100238E
:1405540009F410C07FDE06C01ED1A02E002309F005C0A895C8
:140568001AD1A02E0023B1F799DE08EE13E015D1A9900895DF
:14057C00AA920ED1002309F017C004E610E00BD109D10023AA
:1405900009F410C074DE06C001D1A02E002309F005C0A895B4
:1405A400FDD0A02E0023B1F77BDE08EE13E0F7D0A9900895FE
:1405B800A8958FE181BD8FE081BD0895A895D89829CFD89AE3
:1405CC000895E199FECF1FBB0EBB2DBBE29AF894E19A78941D
:1405E0000895E199FECF1FBB0EBBE09A0DB308950A921A9261
:1405F4002A923A924A925A928A929A920E94B6060FB60A929C
:14060800AA92BA9280916D008330E1F0813069F481E090E075
:14061C00A0E0B0E00E942806280E391E4A1E5B1E0E9457067D
:1406300028C081E090E0A0E0B0E00E942806281A390A4A0A44
:140644005B0A0E9457061BC0839B0DC081E090E0A0E0B0E097
:140658000E942806280E391E4A1E5B1E0E9457060CC081E024
:14066C0090E0A0E0B0E00E942806281A390A4A0A5B0A0E944A
:14068000570681E090E0A0E0B0E00E946A06280E391E4A1E21
:140694005B1E309261002092600050926300409262008AB7EA
:1406A80080648ABFB990A99009900FBE0E94AC069990899093
:1406BC00599049903990299019900990189583E085BF8BB70E
:1406D00080648BBF0895989B02C0002701C001E00895999BBC
:1406E40002C0002701C001E008959A9B02C0002701C001E01A
:1406F80008959B9B02C0002701C001E0089520906F00222092
:14070C0029F0222420926F0001E001C00027089520907000D3
:14072000222011F001E001C00027089520907100222029F0A0
:1407340022242092710001E001C0002708952090720022207E
:1407480029F022242092720001E001C0002708952090730091
:14075C00222029F022242092730001E001C0002708952090AD
:140770007400222029F022242092740001E001C000270895D4
:1407840020907600222029F022242092760001E001C00027A9
:1407980008959DCFA2CFA7CFACCFFAD1662777274427552705
:1407AC000CC06627772702C06F5F7F4F6537E4E07E07D0F33C
:1407C000A8954F5F5F4F4017510788F3E8C1BD9ABF9ABC9AB3
:1407D40081E58DB90895000F111F000F111FC4981801232C86
:1407E80033242FB8779BFECF0FB9779BFECFC49A089506EB4D
:1407FC0013E0EDCF0CE612E0EACF06E311E0E7CF00271127AE
:14081000E4CF2A923A928A939A93EA93FA932FB62A925798B5
:14082400209087003324822D8F5F8093870088E890E0E22D0C
:14083800FF27E80FF91F2CB02082579A29902FBEF991E9915E
:14084C00999189913990299018952224209287000895009178
:1408600087000895A1D1580122242AB82BB886E880BD1501C9
:140874004424552440E251EA67E070E05A924A923A922A924B
:140888008A019B0117D141E050E060E070E018012901241AEB
:14089C00350A460A570A510129B8232C332420BC88E98AB9EF
:1408B00080E88FBF899A7DC15D9BFECF0CB95E9BFECF5E9AD5
:1408C400089561D1C22E7801AA2407C0EA2DFF27EE0DFF1DFF
:1408D8000081EEDFA394AC14B8F348C1AA924A934FEFAA24EE
:1408EC0026C088E890E0EA2D0E9452068337F1F489E890E0A1
:14090000EA2D0E9452068437B9F48AE890E0EA2D0E94520677
:14091400813681F48BE890E0EA2D0E945206823749F48CE845
:1409280090E0EA2D0E945206843711F44A2D06C0A394802F57
:14093C008450A81608F4D5CF042F4991A990089525D187DF36
:14095000602F4FEF093008F4AAC084E1861720F42224209219
:140964008700A3C087E890E0E62F0E945206843609F09AC09A
:1409780086E890E0E62F0E9452068E3609F092C085E890E092
:14098C00E62F0E945206853609F08AC0062FA4DF402F0F3FD5
:1409A00009F482C08DE890E0E42FFF27E80FF91F6081772758
:1409B4006130E0E07E0719F16230E0E07E0709F454C06330D4
:1409C800E0E07E0709F453C06430E0E07E0709F452C0663048
:1409DC00E0E07E0709F456C06730E0E07E0709F45AC061302B
:1409F000E0E07E070CF458C06131E0E07E0751F053C08EE8F5
:140A04000E94430620926D0081E080936F004AC08EE80E94CF
:140A18004306332444245524309269002092680050926B00B7
:140A2C0040926A0088E090E0810192018A93CBD00E947806B5
:140A40008FE80E9410060E94A606C3D00E94780680E90E9467
:140A540010060E94A606BBD00E94780681E90E94100681E0FC
:140A6800809370001DC081E08093710019C081E08093720076
:140A7C0015C08EE80E94430620926E0081E0809373000CC05D
:140A90008EE80E94430620926C0081E08093760003C081E0C5
:140AA40080937400D6DE01C0D4DE77C0E89401C068942DD023
:140AB800CC2408C0E89401C0689427D037FD7CD0B7FD4BD0F3
:140ACC00772488249924AA24BB243BD0B1F03ED0A1F0E8E250
:140AE0000E94B106771C881C991CAA1CBB1C88169906AA0633
:140AF400BB0628F0881A990AAA0ABB0A0395EA9569F726F4C6
:140B0800082D192D2A2D3B2D11C07A928A929A92AA92BA92F2
:140B1C00CA92EA930E94B6068B859C85AD85BE85C32E0EF0F9
:140B3000CB260895C7FC44D00E94AC06E991C990B990A990A3
:140B440099908990799024960895E02FE12BE22BE32B089528
:140B5800E82FE92BEA2BEB2B089580959095A095B0958F5FF4
:140B6C009F4FAF4FBF4F0895A990B990C990D990E990F99098
:140B800008957A936A935A934A93FA92EA92DA92CA92BA92D4
:140B9400AA9208950E94A10608954991599169917991089529
:140BA8000E94A106BA92AA920895A990B9904991599169918B
:140BBC007991089500951095209530950F5F1F4F2F4F3F4FE2
:140BD00008950F920990002021F00E94B1060A94FACF0F90AA
:140BE40008950F920990002031F036952795179507950A9478
:140BF800F8CF0F90089540906A0050906B0020906800309089
:140C0C00690080906600909067006090640070906500089518
:140C200090E0E42FFF27E80FF91F20803324442455243801F7
:140C34004901620C731C841C951C709269006092680090922D
:140C48006B0080926A00089540906600509067002090640083
:140C5C00309065000895A02E2A2C3324442455246880798085
:140C70008A809B80620C731C841C951C688279828A829B82EF
:140C8400089590E0E42FFF27E80FF91F2080089588E090E0F2
:140C9800088119812A813B818A930895FF27E80FF91F8081CE
:140CAC0008953092650020926400509267004092660008953C
:140CC000088319832A833B83288039804A805B80222D08959C
:140CD40040906200509063002090600030906100089508833E
:140CE80019832A833B830895109369000093680030936B001F
:140CFC0020936A00089590E020916600309167000091640086
:140D1000109165008A93089580E0888389838A838B830895E0
:140D240062147304840495040895288239824A825B82089565
:140D3800261437044804590408957A936A935A934A9308957B
:140D4C0088E090E0830194018A930895B991A9919991899120
:140D60000895000F111F221F331F08958A939A93AA93BA939F
:020D74000895E0
:00000001FF
