:080000000C943E000C94100367
:04002C000C9421040B
:14005400000000000000000000000000000301000000000094
:1400680000000041434B73746172740000000000656E640050
:14007C00CFE5D4E0CDBFDEBFC051D0400AEA08830024E8E84B
:14009000F0E011E0E838F10711F00192FBCF0083E4E5F0E009
:1400A400A0E6B0E010E000E00BBFEC37F10721F0C895319648
:1400B8000D92F9CF01D0FFCF2497AA240E94A4064427552772
:1400CC00B3D115D396D300E815E2DED387D200ED17E079D332
:1400E0004FD110936500009364003093670020936600ACD12D
:1400F40092C01FD3002319F07BD2B1D17CD224D3002309F058
:14010800C3D128D3C02E002319F070D27BD171D22CD3C02E7C
:14011C00002319F069D29AD16AD230D3C02E002319F062D270
:14013000F3D163D234D3C02E002319F05BD205D25CD243D359
:14014400C02E002339F080916D00813011F0833009F4B4D009
:1401580039D3C02E002381F080916D00823011F0833051F4DC
:14016C00A9D080E080936400809365008093660080936700C4
:1401800026D3C02E002319F035D2F2D136D220D3C02E002382
:1401940019F02ED209D22FD278D3C02E002341F074D3C02EB0
:1401A800A01621F4E7D3AA246AD303C06CD3C02EAC2C0E9449
:1401BC00900688942220320442045204E1F0688079808A80AD
:1401D0009B800E94AA06A9F44F5F5F4F4436E0E05E0798F08E
:1401E40096D080E0809360008093610080936200809363006F
:1401F8000E94A4064427552704C00E9490060E94AF060EE17E
:14020C0010E0E1D2C89902C0D89A01C0D8986DCF24960895E2
:1402200023E007E710E067C320906D0020927F0088E10E9466
:140234009906EFD4009380000E9440061201442455242092B3
:14024800810088E00E949906E2D4009382000E944006209213
:14025C0083000895B4D2002309F013C0D99800E911E0B1D22B
:14027000DA9A00E911E0ADD2DB9801E010E0A9D2DC9801E099
:1402840010E0A5D281E080936D0008959DD2002309F013C023
:14029800D99A00E911E099D2DA9800E911E095D2DB9801E093
:1402AC0010E091D2DC9801E010E08DD282E080936D000895C8
:1402C000DB9A01E010E085D2DC9A00E911E081D2D99A01E096
:1402D40010E07DD2DA9A01E010E079D283E080936D0003D091
:1402E80000E213E072C22224209275002092720020926F0047
:1402FC00209270002092730020927600209274002092710036
:14031000089524970E94A4060E9440060E94AF0695D0A89554
:14032400288039804A805B80222D04E010E065D10E945B0663
:140338006ED40E94780603E010E05DD10E945B0666D40E946F
:14034C00780602E010E055D10E945B065ED40E94780601E0F1
:1403600010E04DD122270027112749D1222700E011E045D189
:1403740022270FEF11E041D124960895AA9224970E94A40691
:140388000027112742D1002309F035C000E011E03CD10023DD
:14039C0009F02FC00FEF11E036D1A02E002309F028C001E0BC
:1403B00010E02FD1A02E2A2C3324442455240E94AF060E94F4
:1403C4005B061DD40E94820602E010E020D10E9449060E9453
:1403D8005B0613D40E94820603E010E016D10E9449060E9452
:1403EC005B0609D40E94820604E010E00CD10E94490608816A
:1404000019812A813B812496A990089509DF40DF84E08093D9
:140414006D00089580916C00823011F404D207C080916C007C
:14042800813011F401D201C002D2F6CE8FEF8ABB8BBBDF985E
:14043C00222424BA85BB8A988B98929893980895DF9A02E3B3
:1404500010E0BFD1DF980895E7DE2DE00AE710E04AC2809134
:140464006D00833011F42ADF0FC080916D00813031F4A9D1B9
:14047800002309F008C0F0DE05C0A4D1002309F002C002DFC5
:14048C00C9DE0895A3D380916D00813029F40E9417060E94F5
:1404A000AA0648F480916D00823039F40E9417060E94B906DF
:1404B40010F004DF2EC080916D00833009F029C0ADDE40E0A5
:1404C8005FEF6FEF7FEF0E944006421553056405750578F420
:1404DC000E9417060E94AA0610F4D4DE16C00E9417060E940E
:1404F000B90608F0E0CFB4DE0EC00E9417060E94AA0610F41D
:14050400ADDE07C00E9417060E94B90608F0D1CFBDDE65C316
:140518004A935A9340916E0055274130E0E05E0729F0423029
:14052C00E0E05E0719F007C0DD9805C0DD9804E610E049D123
:14054000DD9A6EDE5991499108954A935A9340916E005527FE
:140554004130E0E05E0729F04230E0E05E0711F001C0DD9A14
:140568005BDE599149910895AA922BD1002309F017C004E6D0
:14057C0010E029D126D1002309F410C06BDE06C01ED1A02ECE
:14059000002309F005C0A8951AD1A02E0023B1F78FDE08EE52
:1405A40013E015D1A9900895AA920ED1002309F017C004E69C
:1405B80010E00BD109D1002309F410C065DE06C001D1A02EF0
:1405CC00002309F005C0A895FDD0A02E0023B1F771DE08EE52
:1405E00013E0F7D0A9900895A8958FE181BD8FE081BD089542
:1405F400A895D89829CFD89A0895E199FECF1FBB0EBB2DBB6D
:14060800E29AF894E19A78940895E199FECF1FBB0EBBE09A4E
:14061C000DB308950A921A922A923A924A925A928A929A928D
:140630000E94C9060FB60A92AA92BA9280916D008330E1F05A
:14064400813069F481E090E0A0E0B0E00E944006280E391E3E
:140658004A1E5B1E0E946A0628C081E090E0A0E0B0E00E9430
:14066C004006281A390A4A0A5B0A0E946A061BC0839B0DC01E
:1406800081E090E0A0E0B0E00E944006280E391E4A1E5B1E2F
:140694000E946A060CC081E090E0A0E0B0E00E944006281A69
:1406A800390A4A0A5B0A0E946A0681E090E0A0E0B0E00E94AD
:1406BC009006280E391E4A1E5B1E309261002092600050920F
:1406D0006300409262008AB780648ABFB990A99009900FBE29
:1406E4000E94C40699908990599049903990299019900990CE
:1406F800189583E085BF8BB780648BBF0895989B02C0002771
:14070C0001C001E00895999B02C0002701C001E008959A9B09
:1407200002C0002701C001E008959B9B02C0002701C001E0DC
:14073400089520906F00222029F0222420926F0001E001C091
:140748000027089520907000222011F001E001C00027089510
:14075C0020907100222029F022242092710001E001C00027DB
:14077000089520907200222029F022242092720001E001C04F
:140784000027089520907300222029F022242092730001E0D3
:1407980001C00027089520907400222029F0222420927400DD
:1407AC0001E001C00027089520907600222029F0222420925A
:1407C000760001E001C0002708959DCFA2CFA7CFACCFFAD1B0
:1407D40066277727442755270CC06627772702C06F5F7F4FAA
:1407E8006537E4E07E07D0F3A8954F5F5F4F4017510788F392
:1407FC00E8C1BD9ABF9ABC9A81E58DB90895000F111F000FA3
:14081000111FC4981801232C33242FB8779BFECF0FB9779BE9
:14082400FECFC49A089506EB13E0EDCF0CE612E0EACF06E3D2
:1408380011E0E7CF00271127E4CF2A923A928A939A93EA93A4
:14084C00FA932FB62A925798209087003324822D8F5F80933D
:14086000870088E890E0E22DFF27E80FF91F2CB02082579A6A
:1408740029902FBEF991E9919991899139902990189522240D
:14088800209287000895009187000895A1D1580122242AB8DE
:14089C002BB886E880BD15014424552440E251EA67E070E0CF
:1408B0005A924A923A922A928A019B0117D141E050E060E044
:1408C40070E018012901241A350A460A570A510129B8232CDD
:1408D800332420BC88E98AB980E88FBF899A7DC15D9BFECF49
:1408EC000CB95E9BFECF5E9A089561D1C22E7801AA2407C0A8
:14090000EA2DFF27EE0DFF1D0081EEDFA394AC14B8F348C196
:14091400AA924A934FEFAA2426C088E890E0EA2D0E947306B2
:140928008337F1F489E890E0EA2D0E9473068437B9F48AE82F
:14093C0090E0EA2D0E947306813681F48BE890E0EA2D0E943D
:140950007306823749F48CE890E0EA2D0E947306843711F44E
:140964004A2D06C0A394802F8450A81608F4D5CF042F49911D
:14097800A990089525D187DF602F4FEF093008F4AAC084E168
:14098C00861720F4222420928700A3C087E890E0E62F0E942E
:1409A0007306843609F09AC086E890E0E62F0E9473068E36EB
:1409B40009F092C085E890E0E62F0E947306853609F08AC0D9
:1409C800062FA4DF402F0F3F09F482C08DE890E0E42FFF2749
:1409DC00E80FF91F608177276130E0E07E0719F16230E0E047
:1409F0007E0709F454C06330E0E07E0709F453C06430E0E021
:140A04007E0709F452C06630E0E07E0709F456C06730E0E005
:140A18007E0709F45AC06130E0E07E070CF458C06131E0E0EE
:140A2C007E0751F053C08EE80E94630620926D0081E08093C9
:140A40006F004AC08EE80E9463063324442455243092690045
:140A54002092680050926B0040926A0088E090E081019201FE
:140A68008A93CBD00E9487068FE80E9428060E94BE06C3D053
:140A7C000E94870680E90E9428060E94BE06BBD00E948706DE
:140A900081E90E94280681E0809370001DC081E08093710072
:140AA40019C081E08093720015C08EE80E94630620926E0009
:140AB80081E0809373000CC08EE80E94630620926C0081E077
:140ACC008093760003C081E080937400D6DE01C0D4DE77C084
:140AE000E89401C068942DD0CC2408C0E89401C0689427D0E4
:140AF40037FD7CD0B7FD4BD0772488249924AA24BB243BD0E3
:140B0800B1F03ED0A1F0E8E20E94CE06771C881C991CAA1CA7
:140B1C00BB1C88169906AA06BB0628F0881A990AAA0ABB0A6A
:140B30000395EA9569F726F4082D192D2A2D3B2D11C07A9209
:140B44008A929A92AA92BA92CA92EA930E94C9068B859C8552
:140B5800AD85BE85C32E0EF0CB260895C7FC44D00E94C40654
:140B6C00E991C990B990A99099908990799024960895E02F6F
:140B8000E12BE22BE32B0895E82FE92BEA2BEB2B0895809595
:140B94009095A095B0958F5F9F4FAF4FBF4F0895A990B990A7
:140BA800C990D990E990F99008957A936A935A934A93FA9278
:140BBC00EA92DA92CA92BA92AA9208950E94B40608954991E9
:140BD00059916991799108950E94B406BA92AA920895A990CC
:140BE400B9904991599169917991089500951095209530959B
:140BF8000F5F1F4F2F4F3F4F08950F920990002021F00E9457
:140C0C00CE060A94FACF0F9008950F920990002031F0369517
:140C20002795179507950A94F8CF0F90089540906A00509001
:140C34006B0020906800309069008090660090906700609013
:140C4800640070906500089590E0E42FFF27E80FF91F2080DA
:140C5C0033244424552438014901620C731C841C951C709279
:140C700069006092680090926B0080926A00089540906600D1
:140C84005090670020906400309065000895A02E2A2C3324C4
:140C980044245524688079808A809B80620C731C841C951C13
:140CAC00688279828A829B82089588E090E0088119812A81E3
:140CC0003B818A93089590E0E42FFF27E80FF91F20800895B5
:140CD400309265002092640050926700409266000895FF278B
:140CE800E80FF91F80810895088319832A833B832880398058
:140CFC004A805B80222D0895088319832A833B830895109381
:140D100069000093680030936B0020936A0008954090620051
:140D2400509063002090600030906100089590E02091660023
:140D38003091670000916400109165008A93089580E088835F
:140D4C0089838A838B8308956214730484049504089528827A
:140D600039824A825B8208957A936A935A934A9308952614D3
:140D7400370448045904089588E090E0830194018A9308953F
:140D8800B991A9919991899108958A939A93AA93BA93089581
:0A0D9C00000F111F221F331F0895DE
:00000001FF
