:080000000C943E000C94000377
:04002C000C9411041B
:14005400000000000000000000000000000301000000000094
:1400680000000041434B73746172740000000000656E640050
:14007C00CFE5D4E0CDBFDEBFC051D0400AEA08830024E8E84B
:14009000F0E011E0E838F10711F00192FBCF0083E4E5F0E009
:1400A400A0E6B0E010E000E00BBFEC37F10721F0C895319648
:1400B8000D92F9CF01D0FFCF2497AA240E948906442755278D
:1400CC00B3D105D386D300E815E2CED377D200ED17E069D382
:1400E0004FD110936500009364003093670020936600ACD12D
:1400F40092C00FD3002319F06BD2B1D16CD214D3002309F098
:14010800C3D118D3C02E002319F060D27BD161D21CD3C02EBC
:14011C00002319F059D29AD15AD220D3C02E002319F052D2B0
:14013000F3D153D224D3C02E002319F04BD205D24CD233D3A9
:14014400C02E002339F080916D00813011F0833009F4B4D009
:1401580029D3C02E002381F080916D00823011F0833051F4EC
:14016C00A9D080E080936400809365008093660080936700C4
:1401800016D3C02E002319F025D2F2D126D210D3C02E0023C2
:1401940019F01ED201D21FD268D3C02E002341F064D3C02EF8
:1401A800A01621F4D7D3AA245AD303C05CD3C02EAC2C0E9479
:1401BC00800688942220320442045204E1F0688079808A80BD
:1401D0009B800E949A06A9F44F5F5F4F4436E0E05E0798F09E
:1401E40096D080E0809360008093610080936200809363006F
:1401F8000E9489064427552704C00E9480060E949F060EE1B9
:14020C0010E0D1D2C89902C0D89A01C0D8986DCF24960895F2
:1402200023E007E710E057C320906D0020927F0088E10E9476
:140234008F06DFD4009380000E9430061201442455242092DD
:14024800810088E00E948F06D2D4009382000E94300620923D
:14025C0083000895A4D2002309F013C0D99800E911E0A1D24B
:14027000DA9A00E911E09DD2DB9801E010E099D2DC9801E0B9
:1402840010E095D281E080936D0008958DD2002309F013C043
:14029800D99A00E911E089D2DA9800E911E085D2DB9801E0B3
:1402AC0010E081D2DC9801E010E07DD282E080936D000895E8
:1402C000DB9A01E010E075D2DC9A00E911E071D2D99A01E0B6
:1402D40010E06DD2DA9A01E010E069D283E080936D0003D0B1
:1402E80000E213E062C22224209275002092720020926F0057
:1402FC00209270002092730020927600209274002092710036
:14031000089524970E9489060E9430060E949F0695D0A8958F
:14032400288039804A805B80222D04E010E055D10E944B0683
:140338005ED40E94680603E010E04DD10E944B0656D40E94BF
:14034C00680602E010E045D10E944B064ED40E94680601E041
:1403600010E03DD122270027112739D1222700E011E035D1B9
:1403740022270FEF11E031D124960895AA9224970E948906BC
:140388000027112732D1002309F035C000E011E02CD10023FD
:14039C0009F02FC00FEF11E026D1A02E002309F028C001E0CC
:1403B00010E01FD1A02E2A2C3324442455240E949F060E9414
:1403C4004B060DD40E947B0602E010E010D10E9439060E949A
:1403D8004B0603D40E947B0603E010E006D10E9439060E9499
:1403EC004B06F9D30E947B0604E010E0FCD00E9439060881B3
:1404000019812A813B812496A990089509DF40DF84E08093D9
:140414006D00089580916C00823011F4F4D107C080916C008D
:14042800813011F4F1D101C0F2D1F6CE8FEF8ABB8BBBDF9880
:14043C00222424BA85BB8A988B98929893980895DF9A02E3B3
:1404500010E0AFD1DF980895E7DE2DE00AE710E03AC2809154
:140464006D00833011F42ADF0FC080916D00813031F499D1C9
:14047800002309F008C0F0DE05C094D1002309F002C002DFD5
:14048C00C9DE089593D380916D00813029F40E9407060E9415
:1404A0009A0648F480916D00823039F40E9407060E94A40614
:1404B40010F004DF2EC080916D00833009F029C0ADDE40E0A5
:1404C8005FEF6FEF7FEF0E943006421553056405750578F430
:1404DC000E9407060E949A0610F4D4DE16C00E9407060E943E
:1404F000A40608F0E0CFB4DE0EC00E9407060E949A0610F452
:14050400ADDE07C00E9407060E94A40608F0D1CFBDDE55C34B
:140518004A935A9340916E0055274130E0E05E0729F0423029
:14052C00E0E05E0719F007C0DD9805C0DD9804E610E039D133
:14054000DD9A6EDE5991499108954A935A9340916E005527FE
:140554004130E0E05E0729F04230E0E05E0711F001C0DD9A14
:140568005BDE599149910895AA921BD1002309F00FC072DE82
:14057C0005C015D1002309F005C0A89512D1A02E0023B9F71E
:1405900097DE08EE13E00DD1A9900895AA9206D1002309F016
:1405A4000FC074DE05C000D1002309F005C0A895FDD0A02ED3
:1405B8000023B9F781DE08EE13E0F7D0A9900895A8958FE1CA
:1405CC0081BD8FE081BD0895A895D89839CFD89A0895E19955
:1405E000FECF1FBB0EBB2DBBE29AF894E19A78940895E19909
:1405F400FECF1FBB0EBBE09A0DB308950A921A922A923A92DC
:140608004A925A928A929A920E94B9060FB60A92AA92BA9284
:14061C0080916D008330E1F0813069F481E090E0A0E0B0E0D9
:140630000E943006280E391E4A1E5B1E0E945F0628C081E020
:1406440090E0A0E0B0E00E943006281A390A4A0A5B0A0E946A
:140658005F061BC0839B0DC081E090E0A0E0B0E00E943006AA
:14066C00280E391E4A1E5B1E0E945F060CC081E090E0A0E0E8
:14068000B0E00E943006281A390A4A0A5B0A0E945F0681E058
:1406940090E0A0E0B0E00E948006280E391E4A1E5B1E30927A
:1406A80061002092600050926300409262008AB780648ABFE4
:1406BC00B990A99009900FBE0E94BE069990899059904990D8
:1406D0003990299019900990189583E085BF8BB780648BBF8E
:1406E4000895989B02C0002701C001E00895999B02C00027ED
:1406F80001C001E008959A9B02C0002701C001E008959B9B1C
:14070C0002C0002701C001E0089520906F00222029F02224F1
:1407200020926F0001E001C00027089520907000222011F0DB
:1407340001E001C00027089520907100222029F022242092D7
:14074800710001E001C00027089520907200222029F0222403
:14075C002092720001E001C00027089520907300222029F081
:1407700022242092730001E001C0002708952090740022203E
:1407840029F022242092740001E001C0002708952090760050
:14079800222029F022242092760001E001C0002708959DCFB2
:1407AC00A2CFA7CFACCFFAD166277727442755270CC06627A1
:1407C000772702C06F5F7F4F6537E4E07E07D0F3A8954F5F96
:1407D4005F4F4017510788F3E8C1BD9ABF9ABC9A81E58DB9DE
:1407E8000895000F111F000F111FC4981801232C33242FB8E0
:1407FC00779BFECF0FB9779BFECFC49A089506EB13E0EDCFC8
:140810000CE612E0EACF06E311E0E7CF00271127E4CF2A92D9
:140824003A928A939A93EA93FA932FB62A92579820908700D9
:140838003324822D8F5F8093870088E890E0E22DFF27E80F12
:14084C00F91F2CB02082579A29902FBEF991E9919991899123
:14086000399029901895222420928700089500918700089584
:14087400A1D1580122242AB82BB886E880BD150144245524F8
:1408880040E251EA67E070E05A924A923A922A928A019B01F1
:14089C0017D141E050E060E070E018012901241A350A460A6F
:1408B000570A510129B8232C332420BC88E98AB980E88FBFB4
:1408C400899A7DC15D9BFECF0CB95E9BFECF5E9A089561D1A8
:1408D800C22E7801AA2407C0EA2DFF27EE0DFF1D0081EEDF6C
:1408EC00A394AC14B8F348C1AA924A934FEFAA2426C088E8D2
:1409000090E0EA2D0E945A068337F1F489E890E0EA2D0E9421
:140914005A068437B9F48AE890E0EA2D0E945A06813681F4E0
:140928008BE890E0EA2D0E945A06823749F48CE890E0EA2DCE
:14093C000E945A06843711F44A2D06C0A394802F8450A81630
:1409500008F4D5CF042F4991A990089525D187DF602F4FEFE7
:14096400093008F4AAC084E1861720F4222420928700A3C0E8
:1409780087E890E0E62F0E945A06843609F09AC086E890E08A
:14098C00E62F0E945A068E3609F092C085E890E0E62F0E949D
:1409A0005A06853609F08AC0062FA4DF402F0F3F09F482C031
:1409B4008DE890E0E42FFF27E80FF91F608177276130E0E032
:1409C8007E0719F16230E0E07E0709F454C06330E0E07E07CC
:1409DC0009F453C06430E0E07E0709F452C06630E0E07E0734
:1409F00009F456C06730E0E07E0709F45AC06130E0E07E0717
:140A04000CF458C06131E0E07E0751F053C08EE80E9453062A
:140A180020926D0081E080936F004AC08EE80E9453063324F6
:140A2C0044245524309269002092680050926B0040926A0007
:140A400088E090E0810192018A93CBD00E9472068FE80E94CA
:140A540018060E94AE06C3D00E94720680E90E9418060E94A2
:140A6800AE06BBD00E94720681E90E94180681E08093700013
:140A7C001DC081E08093710019C081E08093720015C08EE89A
:140A90000E94530620926E0081E0809373000CC08EE80E946C
:140AA400530620926C0081E08093760003C081E08093740032
:140AB800D6DE01C0D4DE77C0E89401C068942DD0CC2408C0DE
:140ACC00E89401C0689427D037FD7CD0B7FD4BD07724882450
:140AE0009924AA24BB243BD0B1F03ED0A1F0E8E20E94B40627
:140AF400771C881C991CAA1CBB1C88169906AA06BB0628F09F
:140B0800881A990AAA0ABB0A0395EA9569F726F4082D192D0F
:140B1C002A2D3B2D11C07A928A929A92AA92BA92CA92EA9380
:140B30000E94B9068B859C85AD85BE85C32E0EF0CB2608952D
:140B4400C7FC44D00E94BE06E991C990B990A99099908990C9
:140B5800799024960895E02FE12BE22BE32B0895E82FE92B2B
:140B6C00EA2BEB2B089580959095A095B0958F5F9F4FAF4F1F
:140B8000BF4F0895A990B990C990D990E990F99008957A93C6
:140B94006A935A934A93FA92EA92DA92CA92BA92AA92089591
:140BA8000E94A9060895499159916991799108950E94A90695
:140BBC00BA92AA920895A990B9904991599169917991089519
:140BD00000951095209530950F5F1F4F2F4F3F4F08950F9237
:140BE4000990002021F00E94B4060A94FACF0F9008950F9293
:140BF8000990002031F036952795179507950A94F8CF0F903C
:140C0C00089540906A0050906B002090680030906900809061
:140C20006600909067006090640070906500089590E0E42FFA
:140C3400FF27E80FF91F208033244424552438014901620CAE
:140C4800731C841C951C709269006092680090926B00809254
:140C5C006A00089540906600509067002090640030906500C7
:140C70000895A02E2A2C332444245524688079808A809B8071
:140C8400620C731C841C951C688279828A829B82089588E0FB
:140C980090E0088119812A813B818A93089590E0E42FFF27EB
:140CAC00E80FF91F20800895FF27E80FF91F80810895309253
:140CC000650020926400509267004092660008950883198360
:140CD4002A833B83288039804A805B80222D089510936900A3
:140CE8000093680030936B0020936A000895088319832A8341
:140CFC003B83089540906200509063002090600030906100E3
:140D1000089580E0888389838A838B83089590E0209166007C
:140D24003091670000916400109165008A93089562147304F1
:140D3800840495040895288239824A825B82089526143704C9
:140D4C004804590408957A936A935A934A93089588E090E004
:140D6000830194018A930895000F111F221F331F08958A9320
:120D74009A93AA93BA930895B991A991999189910895B4
:00000001FF
