:080000000C9445000C943B0335
:04002C000C944804E4
:14005400000000000000000000000000010301030000000090
:140068000000000041434B4E414B43414B73746172740000DE
:0D007C00000000656E643A000000003A00CC
:14008A00CFE5D4E0CDBFDEBFC051D0400AEA08830024E5E93F
:14009E00F0E011E0E539F10711F00192FBCF0083E4E5F0E0FD
:1400B200A0E6B0E010E000E00BBFE938F10721F0C89531963C
:1400C6000D92F9CF01D0FFCF2497AA240E9404074427552703
:1400DA00BED135D3B6D300E815E2FED3A4D200ED17E099D37C
:1400EE005FD110936500009364003093670020936600B7D104
:1401020094C03FD3002319F098D2BCD199D244D3002309F0C2
:14011600C6D148D3C02E002319F08DD20CD18ED24CD3C02E60
:14012A00002319F086D2A5D187D250D3C02E002319F07FD2E0
:14013E00E1D180D254D3C02E002319F078D2F3D179D263D3D9
:14015200C02E002339F060916F00613011F0633009F4D5D038
:1401660059D3C02E002381F060916F00623011F0633051F40C
:14017A0080E080936400809365008093660080936700C1D09E
:14018E0046D3C02E002319F052D2E0D153D240D3C02E00230C
:1401A20019F04BD2F7D14CD298D3C02E002349F094D3C02E33
:1401B600A01629F4A89506D4AA2489D303C08BD3C02EAC2C3A
:1401CA000E94ED0688942220320442045204E9F068807980A2
:1401DE008A809B800E941F07B1F4A8954F5F5F4F4639E0E0A3
:1401F2005E0798F0A4D080E0809360008093610080936200DC
:14020600809363000E9404074427552704C00E94ED060E94DF
:14021A001A070EE110E0FFD2C89902C0D89A01C0D8986BCFFF
:14022E0024960895A89523E008E710E084C3A89523E00BE7CD
:1402420010E07FC3A89523E00EE710E07AC320906F00209243
:14025600860088E10E940A072FD5009387000E94B206120167
:14026A00442455242092880088E00E940A0722D50093890037
:14027E000E94B20620928A00089522242092760020927300A6
:1402920020927000209271002092740020927700209275009D
:1402A600209272000895A895B4D2002309F013C080916F0051
:1402BA00833009F028D0DA9A08E512E0ACD2D998DC9881E075
:1402CE0080936F0001C0A895A1D20023E1F70895A8959CD2E6
:1402E200002309F013C080916F00833009F00FD0D99A08E5AE
:1402F60012E093D2DA98DC9882E080936F0001C0A89587D27C
:14030A000023E1F70895A89580916F00833009F40FC083E0A8
:14031E0080936F0080936D00B0DFD99ADA9A08E512E077D22B
:14033200DC9A04EF11E073D208957ADFCFCF24970E9404071C
:140346000E94B2060E941A07A895288039804A805B80222DF4
:14035A0004E010E074D10E94CD06ACD40E94E30603E010E023
:14036E006CD10E94CD06A4D40E94E30602E010E064D10E941D
:14038200CD069CD40E94E30601E010E05CD1222700271127F3
:1403960058D1222700E011E054D122270FEF11E050D163D05F
:1403AA0024960895AA9224970E9404070027112756D100239B
:1403BE0009F035C000E011E050D1002309F02FC00FEF11E051
:1403D2004AD1A02E002309F028C001E010E043D1A02E2A2C21
:1403E6003324442455240E941A070E94CD065AD40E94FF06BE
:1403FA0002E010E034D10E94BB060E94CD0650D40E94FF0675
:14040E0003E010E02AD10E94BB060E94CD0646D40E94FF0673
:1404220004E010E020D10E94BB06088119812A813B8124965A
:14043600A9900895FBDE80916C00823011F419D207C080910C
:14044A006C00813011F416D201C017D208958FEF8ABB8BBB44
:14045E00DF98222424BA85BB8A988B98929893980895DF9AFF
:1404720002E310E0D4D1DF980895E9DE2DE001E810E05FC21A
:14048600D5DE80916D00833011F43FDF07C080916D00813065
:14049A0011F407DF01C01EDF0895AA92BA9280916F0083304D
:1404AE0089F4C0DE0E949B060E941F0710F4F7DE1EC00E94BB
:1404C2009B060E944F0710F409DF17C020DF15C080916F0076
:1404D600813039F40E949B060E941F0710F015DF0AC080915A
:1404EA006F00823031F40E949B060E944F0708F00ADFB99053
:1404FE00A99008954A935A9395DE40916E0055274130E0E0EB
:140512005E0729F04230E0E05E0719F007C0DD9805C0DD9841
:1405260008EC10E07AD1DD9A5991499108954A935A937CDE96
:14053A0040916E0055274130E0E05E0729F04230E0E05E07AC
:14054E0011F001C0DD9A599149910895AA925DD1002309F079
:1405620017C004E610E05BD158D1002309F410C09CDE06C04F
:1405760050D1A02E002309F005C0A8954CD1A02E0023B1F7AE
:14058A00C2DE08EE13E047D1A9900895AA9240D1002309F07D
:14059E0017C004E610E03DD13BD1002309F410C097DE06C053
:1405B20033D1A02E002309F005C0A8952FD1A02E0023B1F7AC
:1405C600A4DE08EE13E029D1A99008952A9740906A0050900B
:1405DA006B0020906800309069002E823F82488659868EE8CD
:1405EE0090E0FE0106E010E0FA93EA939A938A936BD388E1B9
:140602000E9424075BD309830E9445071201442455242A82CF
:1406160088E00E94240750D30B830E9445072C8226E08E01B9
:14062A008CD12A960895A8958FE181BD8FE081BD0895A89590
:14063E00D89817CFA895D89A08950ED3A22E6801E199FECFA5
:14065200DFBACEBAADBAE29AF894E19A789401E010E0DDD0FF
:14066600F1C2E199FECF1FBB0EBBE09A0DB308952A923A9284
:14067A004A925A920A931A932A933A930E944A072FB62A923C
:14068E0080916D008330E1F0813069F481E090E0A0E0B0E067
:1406A2000E94B206280E391E4A1E5B1E0E94DA0628C081E0B1
:1406B60090E0A0E0B0E00E94B206281A390A4A0A5B0A0E9476
:1406CA00DA061BC0839B0DC081E090E0A0E0B0E00E94B2063B
:1406DE00280E391E4A1E5B1E0E94DA060CC081E090E0A0E0FB
:1406F200B0E00E94B206281A390A4A0A5B0A0E94DA0681E0E9
:1407060090E0A0E0B0E00E94ED06280E391E4A1E5B1E30929A
:14071A0061002092600050926300409262008AB780648ABF71
:14072E0029902FBE0E943607399129911991099159904990A8
:1407420039902990189583E085BF8BB780648BBF0895989B8D
:1407560002C0002701C001E00895999B02C0002701C001E0A8
:14076A0008959A9B02C0002701C001E008959B9B02C0002762
:14077E0001C001E0089520907000222029F022242092700045
:1407920001E001C00027089520907100222011F001E001C0E7
:1407A6000027089520907200222029F022242092720001E0B3
:1407BA0001C00027089520907300222029F0222420927300BD
:1407CE0001E001C00027089520907400222029F0222420923A
:1407E200740001E001C00027089520907500222029F0222463
:1407F6002092750001E001C00027089520907700222029F0E0
:14080A0022242092770001E001C0002708959DCFA2CFA7CFB2
:14081E00ACCF27D266277727442755270CC06627772702C087
:140832006F5F7F4F6537E4E07E07D0F3A8954F5F5F4F40177E
:14084600510788F315C2BD9ABF9ABC9A81E58DB90895000F96
:14085A00111F000F111FC4981801232C33242FB8779BFECF3A
:14086E000FB9779BFECFC49A089506EB13E0EDCF0CE612E050
:14088200EACF06E311E0E7CF00271127E4CF2A923A928A9362
:140896009A93EA93FA932FB62A925798209094003324822D3D
:1408AA008F5F8093940085E990E0E22DFF27E80FF91F2CB0A7
:1408BE002082579A29902FBEF991E991999189913990299023
:1408D20018952224209294000895009194000895CED1580182
:1408E60022242AB82BB886E880BD15014424552440E251EAF4
:1408FA0067E070E05A924A923A922A928A019B0143D141E0A7
:14090E0050E060E070E018012901241A350A460A570A510152
:1409220029B8232C332420BC88E98AB980E88FBF899AAAC166
:140936005D9BFECF0CB95E9BFECF5E9A08958ED1C22E780100
:14094A00AA2407C0EA2DFF27EE0DFF1D0081EEDFA394AC146B
:14095E00B8F377C1AA924A934FEFAA2426C085E990E0EA2DA2
:140972000E94D5068337F1F486E990E0EA2D0E94D506843727
:14098600B9F487E990E0EA2D0E94D506813681F488E990E02F
:14099A00EA2D0E94D506823749F489E990E0EA2D0E94D50649
:1409AE00843711F44A2D06C0A394802F8450A81608F4D5CF20
:1409C200042F4991A99008955AD187DF602F4FEF093008F4AB
:1409D600D6C084E1861720F4222420929400CFC084E990E069
:1409EA00E62F0E94D506843609F0C6C083E990E0E62F0E949B
:1409FE00D5068E3609F0BEC082E990E0E62F0E94D5068536A7
:140A120009F0B6C0062FA4DF402F0F3F09F4AEC08AE90E946C
:140A2600AC06A080BB24C5018130E0E09E0749F18230E0E083
:140A3A009E0709F47EC08330E0E09E0709F47DC08430E0E002
:140A4E009E0709F47CC08630E0E09E0709F481C08730E0E0E6
:140A62009E0709F486C08830E0E09E0709F485C08130E0E0C8
:140A76009E070CF481C0C5018131E0E09E0759F07BC08BE9B1
:140A8A000E94AC06208020926D0081E08093700071C08BE9BC
:140A9E000E94AC0620803324442455243092690020926800D3
:140AB20050926B0040926A0088E090E0810192018A93F2D0DB
:140AC6000E94F6068CE90E9483060E942B07EAD00E94F606B2
:140ADA008DE90E9483060E942B07E2D00E94F6068EE90E942A
:140AEE008306862F841B8E3010F4A1DB41C08CE90E94AC060F
:140B0200208033248BE90E94AC0640805524420C531C8DE9B4
:140B16000E94AC060E9431078EE90E94AC060E943107209048
:140B2A009F00421411F08ADB25C081E08093710021C081E050
:140B3E00809372001DC081E08093730019C08BE90E94AC06B9
:140B5200208020926E0081E0809374000FC08BE90E94AC0650
:140B6600208020926C0081E08093770005C081E08093750024
:140B7A0001C02ADDAADE01C0A8DE82C0E89401C068942DD058
:140B8E00CC2408C0E89401C0689427D037FD7DD0B7FD4BD01B
:140BA200772488249924AA24BB243BD0B1F03ED0A1F0E8E279
:140BB6000E943B07771C881C991CAA1CBB1C88169906AA06D1
:140BCA00BB0628F0881A990AAA0ABB0A0395EA9569F726F4EF
:140BDE00082D192D2A2D3B2D11C07A928A929A92AA92BA921C
:140BF200CA92EA930E944A078B859C85AD85BE85C32E0EF08E
:140C0600CB260895C7FC45D00E943607E991C990B990A99040
:140C1A0099908990799024960895E02FE12BE22BE32B089551
:140C2E00E82FE92BEA2BEB2B089580959095A095B0958F5F1D
:140C42009F4FAF4FBF4F08950E94400708950E944007E9901F
:140C5600F99008957A936A935A934A93FA92EA92DA92CA92C0
:140C6A00BA92AA9208950E941507089549915991699179912E
:140C7E0008950E941507BA92AA920895A990B990499159919C
:140C920069917991089500951095209530950F5F1F4F2F4F9F
:140CA6003F4F08950F920990002021F00E943B070A94FACF59
:140CBA000F9008950F920990002031F03695279517950795A0
:140CCE000A94F8CF0F900895AA93BA93EA93FA930A92AF8111
:140CE200B885ED81FE810030010729F001900D9201501040B2
:140CF600F8CF0990F991E991B991A9912496089590E0E42F28
:140D0A00FF27E80FF91F208033244424552438014901620CD7
:140D1E00731C841C951C709269006092680090926B0080927D
:140D32006A00089540906A0050906B002090680030906900E0
:140D460080906600909067006090640070906500089590E0D6
:140D5A00E42FFF27E80FF91F08954090660050906700209073
:140D6E006400309065000895A02E2A2C332444245524688007
:140D820079808A809B80620C731C841C951C688279828A8200
:140D96009B82089588E090E0088119812A813B818A93089573
:140DAA00FF27E80FF91F808108953092650020926400509243
:140DBE006700409266000895088319832A833B8328803980F2
:140DD2004A805B80222D0895409062005090630020906000F7
:140DE600309061000895109369000093680030936B00209353
:140DFA006A000895088319832A833B83089580E08883898338
:140E0E008A838B83089590E020916600309167000091640074
:140E2200109165008A9308957A936A935A934A9308952882E1
:140E360039824A825B8208956214730484049504089590E08C
:140E4A000E811F81288539858A93089588E090E0830194014F
:140E5E008A93089520803324420C531C0895B991A9919991C7
:140E720089910895000F111F221F331F0895A990B990C9906B
:140E8600D99008952E803F804884598408958A939A93AA9318
:0E0E9A00BA93089526143704480459040895A5
:00000001FF
