:080000000C943E000C94C402B4
:04002C000C94D2035B
:14005400000000000000000000000000000301000000000094
:1400680000000041434B73746172740000000000656E640050
:14007C00CFE5D4E0CDBFDEBFC051D0400AEA08830024E8E84B
:14009000F0E011E0E838F10711F00192FBCF0083E4E5F0E009
:1400A400A0E6B0E010E000E00BBFEC37F10721F0C895319648
:1400B8000D92F9CF01D0FFCF2497AA240E94550644275527C1
:1400CC0091D1C9D24AD300E815E28FD33BD200ED17E02DD3D4
:1400E0002ED1109365000093640030936700209366008AD170
:1400F40086C0D3D2002319F02FD28FD130D2D8D2002309F0B8
:14010800A1D1DCD2C02E002319F024D25AD125D2E0D2C02EF1
:14011C00002319F01DD278D11ED2E4D2C02E002319F016D2C3
:14013000B7D117D2E8D2C02E002319F00FD2C9D110D2F7D250
:14014400C02E002309F0AED0F3D2C02E002351F0A9D080E02F
:1401580080936400809365008093660080936700E6D2C02E0B
:14016C00002319F0F5D1C2D1F6D1E0D2C02E002319F0EED1A8
:14018000D1D1EFD135D3C02E002341F031D3C02EA01621F402
:14019400A4D3AA2427D303C029D3C02EAC2C0E943806889497
:1401A8002220320442045204E1F0688079808A809B800E94B6
:1401BC005B06A9F44F5F5F4F4436E0E05E0798F081D080E0FD
:1401D000809360008093610080936200809363000E9455064C
:1401E4004427552704C00E9438060E9465060EE110E0A1D21D
:1401F800C89902C0D89A01C0D89879CF2496089523E007E79D
:14020C0010E024C320906D0020927F0088E10E944A06ACD4DE
:14022000009380000E94F1051201442455242092810088E090
:140234000E944A069FD4009382000E94F105209283000895D2
:1402480074D2002309F013C0D99804E610E071D2DA9A04E681
:14025C0010E06DD2DB9804E610E069D2DC9804E610E065D252
:1402700081E080936D0008955DD2002309F013C0D99A04E681
:1402840010E059D2DA9804E610E055D2DB9804E610E051D268
:14029800DC9804E610E04DD282E080936D000895DB9A04E607
:1402AC0010E045D2DC9A04E610E041D2D99A04E610E03DD278
:1402C000DA9A04E610E039D283E080936D00089524970E94F4
:1402D40055060E94F1050E94650694D0A895288039804A804A
:1402E8005B80222D04E010E03AD10E94130640D40E94290659
:1402FC0003E010E032D10E94130638D40E94290602E010E0AE
:140310002AD10E94130630D40E94290601E010E022D1222741
:14032400002711271ED1222700E011E01AD122270FEF11E03A
:1403380016D124960895AA9224970E9455060027112717D138
:14034C00002309F035C000E011E011D1002309F02FC00FEFD0
:1403600011E00BD1A02E002309F028C001E010E004D1A02E76
:140374002A2C3324442455240E9465060E941306EFD30E94BB
:14038800330602E010E0F5D00E94FA050E941306E5D30E94DB
:14039C00330603E010E0EBD00E94FA050E941306DBD30E94DA
:1403B000330604E010E0E1D00E94FA05088119812A813B8150
:1403C4002496A990089556DF84E080936D001ACF80916C0016
:1403D800823011F4DAD107C080916C00813011F4D7D101C04C
:1403EC00D8D10CCF8FEF8ABB8BBBDF98222424BA85BB8A9873
:140400008B98929893980895DF9A02E310E095D1DF9808950B
:14041400FDDE2DE00AE710E01DC280916D00833011F440DFD7
:140428000FC080916D00813031F47FD1002309F008C006DF84
:14043C0005C07AD1002309F002C018DFDFDE089580916D00EF
:14045000813029F40E94E0050E945B0648F480916D008230D4
:1404640051F40E94E0050E947F0628F01BDF22242092700017
:1404780012C080916D00833071F4C2DE0E94E0050E945B06DE
:14048C0010F4DCDE06C00E94E0050E947F0650F7EDDE08957B
:1404A0004A935A9340916E0055274130E0E05E0729F04230A2
:1404B400E0E05E0719F007C0DD9805C0DD9804E610E039D1AC
:1404C800DD9A9EDE5991499108954A935A9340916E00552747
:1404DC004130E0E05E0729F04230E0E05E0711F001C0DD9A8D
:1404F0008BDE599149910895AA921BD1002309F00FC0A2DE9B
:1405040005C015D1002309F005C0A89512D1A02E0023B9F796
:14051800C7DE08EE13E00DD1A9900895AA9206D1002309F05E
:14052C000FC0A4DE05C000D1002309F005C0A895FDD0A02E1B
:140540000023B9F7B1DE08EE13E0F7D0A9900895A8958FE112
:1405540081BD8FE081BD0895A895D89853CFD89A0895E199B3
:14056800FECF1FBB0EBB2DBBE29AF894E19A78940895E19981
:14057C00FECF1FBB0EBBE09A0DB308950A921A922A923A9254
:140590004A925A928A929A920E947A060FB60A92AA92BA923C
:1405A40080916D008330E1F0813069F481E090E0A0E0B0E052
:1405B8000E94F105280E391E4A1E5B1E0E94200628C081E018
:1405CC0090E0A0E0B0E00E94F105281A390A4A0A5B0A0E9423
:1405E00020061BC0839B0DC081E090E0A0E0B0E00E94F105A2
:1405F400281A390A4A0A5B0A0E9420060CC081E090E0A0E0D0
:14060800B0E00E94F105280E391E4A1E5B1E0E94200681E01F
:14061C0090E0A0E0B0E00E943806280E391E4A1E5B1E30923A
:1406300061002092600050926300409262008AB780648ABF5C
:14064400B990A99009900FBE0E947506999089905990499099
:140658003990299019900990189583E085BF8BB780648BBF06
:14066C000895989B02C0002701C001E00895999B02C0002765
:1406800001C001E008959A9B02C0002701C001E008959B9B94
:1406940002C0002701C001E0089520906F00222029F022246A
:1406A80020926F0001E001C00027089520907000222011F054
:1406BC0001E001C00027089520907100222029F02224209250
:1406D000710001E001C00027089520907200222029F022247C
:1406E4002092720001E001C00027089520907300222029F0FA
:1406F80022242092730001E001C000270895209074002220B7
:14070C0029F022242092740001E001C00027089520907600C8
:14072000222029F022242092760001E001C0002708959DCF2A
:14073400A2CFA7CFACCFF7D166277727442755270CC066271C
:14074800772702C06F5F7F4F6537E4E07E07D0F3A8954F5F0E
:14075C005F4F4017510788F3E5C1BD9ABF9ABC9A81E58DB959
:140770000895000F111F000F111FC4981801232C33242FB858
:14078400779BFECF0FB9779BFECFC49A089506EB13E0EDCF40
:140798000CE612E0EACF06E311E0E7CF2A923A928A939A934E
:1407AC00EA93FA932FB62A925798209087003324822D8F5F74
:1407C0008093870088E890E0E22DFF27E80FF91F2CB02082E9
:1407D400579A29902FBEF991E9919991899139902990189503
:1407E8002224209287000895009187000895A1D1580122241B
:1407FC002AB82BB886E880BD15014424552440E251EA67E0DE
:1408100070E05A924A923A922A928A019B0117D141E050E0D4
:1408240060E070E018012901241A350A460A570A510129B88C
:14083800232C332420BC88E98AB980E88FBF899A7DC15D9B67
:14084C00FECF0CB95E9BFECF5E9A089561D1C22E7801AA2442
:1408600007C0EA2DFF27EE0DFF1D0081EEDFA394AC14B8F379
:1408740048C1AA924A934FEFAA2426C088E890E0EA2D0E94C3
:140888001B068337F1F489E890E0EA2D0E941B068437B9F479
:14089C008AE890E0EA2D0E941B06813681F48BE890E0EA2D66
:1408B0000E941B06823749F48CE890E0EA2D0E941B06843702
:1408C40011F44A2D06C0A394802F8450A81608F4D5CF042F93
:1408D8004991A990089525D187DF602F4FEF093008F4AAC094
:1408EC0084E1861720F4222420928700A3C087E890E0E62F0C
:140900000E941B06843609F09AC086E890E0E62F0E941B065D
:140914008E3609F092C085E890E0E62F0E941B06853609F057
:140928008AC0062FA4DF402F0F3F09F482C08DE890E0E42FC5
:14093C00FF27E80FF91F608177276130E0E07E0719F1623081
:14095000E0E07E0709F454C06330E0E07E0709F453C06430C1
:14096400E0E07E0709F452C06630E0E07E0709F456C06730A6
:14097800E0E07E0709F45AC06130E0E07E070CF458C061318F
:14098C00E0E07E0751F053C08EE80E940C0620926D0081E014
:1409A00080936F004AC08EE80E940C06332444245524309293
:1409B40069002092680050926B0040926A0088E090E08101C9
:1409C80092018A93CBD00E9441068FE80E94C8050E946A06EF
:1409DC00C3D00E94410680E90E94C8050E946A06BBD00E9474
:1409F000410681E90E94C80581E0809370001DC081E080939E
:140A0400710019C081E08093720015C08EE80E940C062092FD
:140A18006E0081E0809373000CC08EE80E940C0620926C0061
:140A2C0081E08093760003C081E080937400D6DE01C0D4DEFA
:140A400077C0E89401C068942DD0CC2408C0E89401C0689444
:140A540027D037FD7CD0B7FD4BD0772488249924AA24BB2497
:140A68003BD0B1F03ED0A1F0E8E20E947006771C881C991C61
:140A7C00AA1CBB1C88169906AA06BB0628F0881A990AAA0A0A
:140A9000BB0A0395EA9569F726F4082D192D2A2D3B2D11C0F1
:140AA4007A928A929A92AA92BA92CA92EA930E947A068B8557
:140AB8009C85AD85BE85C32E0EF0CB260895C7FC44D00E949E
:140ACC007506E991C990B990A99099908990799024960895A4
:140AE000E02FE12BE22BE32B0895E82FE92BEA2BEB2B08953C
:140AF40080959095A095B0958F5F9F4FAF4FBF4F0895A9907C
:140B0800B990C990D990E990F99008957A936A935A934A935B
:140B1C00FA92EA92DA92CA92BA92AA9208950E94600608952B
:140B3000499159916991799108950E946006BA92AA9208951F
:140B4400A990B99049915991699179910895009510952095C7
:140B580030950F5F1F4F2F4F3F4F08950F920990002021F0D4
:140B6C000E9470060A94FACF0F9008950F920990002031F03F
:140B800036952795179507950A94F8CF0F90089590E0E42F6E
:140B9400FF27E80FF91F208033244424552438014901620C4F
:140BA800731C841C951C709269006092680090926B008092F5
:140BBC006A00089540906A0050906B00209068003090690058
:140BD0008090660090906700609064007090650008954090EE
:140BE40066005090670020906400309065000895A02E2A2C56
:140BF800332444245524688079808A809B80620C731C841C0E
:140C0C00951C688279828A829B82089590E0E42FFF27E80FD8
:140C2000F91F2080089588E090E0088119812A813B818A93EC
:140C34000895FF27E80FF91F808108953092650020926400FF
:140C480050926700409266000895088319832A833B83288040
:140C5C0039804A805B80222D0895088319832A833B8308950B
:140C700040906200509063002090600030906100089510938A
:140C840069000093680030936B0020936A00089590E02091EF
:140C980066003091670000916400109165008A93089580E0A5
:140CAC00888389838A838B83089562147304840495040895BA
:140CC0007A936A935A934A930895288239824A825B82089504
:140CD40088E090E0830194018A930895000F111F221F331F8F
:140CE8000895B991A9919991899108958A939A93AA93BA9322
:0C0CFC0008952614370448045904089594
:00000001FF
