:080000000C9442000C94230350
:04002C000C943404F8
:14005400000000000000000000000000000301030000000091
:140068000000000041434B73746172740000000000656E6450
:07007C003A000000003A0009
:14008400CFE5D4E0CDBFDEBFC051D0400AEA08830024EFE83C
:14009800F0E011E0EF38F10711F00192FBCF0083E4E5F0E0FA
:1400AC00A0E6B0E010E000E00BBFE338F10721F0C895319648
:1400C0000D92F9CF01D0FFCF2497AA240E94D7064427552737
:1400D400AAD124D3A5D300E815E2EDD390D200ED17E088D3EE
:1400E8004BD110936500009364003093670020936600A3D132
:1400FC0092C02ED3002319F084D2A8D185D233D3002309F029
:14011000B2D137D3C02E002319F079D2F8D07AD23BD3C02ED9
:14012400002319F072D291D173D23FD3C02E002319F06BD247
:14013800CDD16CD243D3C02E002319F064D2DFD165D252D365
:14014C00C02E002339F060916F00613011F0633009F4C2D051
:1401600048D3C02E002381F060916F00623011F0633051F423
:1401740080E080936400809365008093660080936700AED0B7
:1401880035D3C02E002319F03ED2CCD13FD22FD3C02E002370
:14019C0019F037D2E3D138D287D3C02E002341F083D3C02E9F
:1401B000A01621F4F6D3AA2479D303C07BD3C02EAC2C0E9414
:1401C400C30688942220320442045204E1F0688079808A8072
:1401D8009B800E94DD06A9F44F5F5F4F4639E0E05E0798F04E
:1401EC0092D080E0809360008093610080936200809363006B
:140200000E94D7064427552704C00E94C3060E94E9060EE1D5
:1402140010E0F0D2C89902C0D89A01C0D8986DCF24960895CB
:1402280023E008E710E076C320906F002092800088E10E944B
:14023C00CC0606D5009381000E94730612014424552420922C
:14025000820088E00E94CC06F9D4009383000E94730620928C
:140264008400089522242092760020927300209270002092FE
:140278007100209274002092770020927500209272000895CA
:14028C00B1D2002309F011C080916F00833009F023D0DA9A5B
:1402A00008E512E0A9D2D998DC9881E080936F00A0D2002393
:1402B400E9F708959CD2002309F011C080916F00833009F032
:1402C8000DD0D99A08E512E093D2DA98DC9882E080936F00C4
:1402DC0089D20023E9F7089580916F00833009F40FC083E0B1
:1402F00080936F0080936D00B7DFD99ADA9A08E512E07AD250
:14030400DC9A04EF11E076D208958CDFD3CF24970E94D7065F
:140318000E9473060E94E906A895288039804A805B80222D93
:14032C0004E010E073D10E948E068AD40E94AB0603E010E0EB
:140340006BD10E948E0682D40E94AB0602E010E063D10E94E6
:140354008E067AD40E94AB0601E010E05BD1222700271127BB
:1403680057D1222700E011E053D122270FEF11E04FD163D090
:14037C0024960895AA9224970E94D7060027112755D10023F8
:1403900009F035C000E011E04FD1002309F02FC00FEF11E080
:1403A40049D1A02E002309F028C001E010E042D1A02E2A2C51
:1403B8003324442455240E94E9060E948E0638D40E94B506C9
:1403CC0002E010E033D10E947C060E948E062ED40E94B5068E
:1403E00003E010E029D10E947C060E948E0624D40E94B5068D
:1403F40004E010E01FD10E947C06088119812A813B812496C9
:14040800A99008950DDF80916C00823011F41CD207C0809124
:14041C006C00813011F419D201C01AD208958FEF8ABB8BBB6C
:14043000DF98222424BA85BB8A988B98929893980895DF9A2D
:1404440002E310E0D7D1DF980895F0DE2DE00BE710E062C232
:14045800E7DE80916D00833011F440DF07C080916D00813080
:14046C0011F40EDF01C022DF0895AA92BA9280916F00833070
:1404800089F4D2DE0E9462060E94DD0610F4FEDE1EC00E944C
:1404940062060E940D0710F40DDF17C021DF15C080916F001A
:1404A800813039F40E9462060E94DD0610F016DF0AC0809103
:1404BC006F00823031F40E9462060E940D0708F00BDFB990FB
:1404D000A99008954A935A93A7DE40916E0055274130E0E007
:1404E4005E0729F04230E0E05E0719F007C0DD9805C0DD9870
:1404F80008EC10E07DD1DD9A5991499108954A935A938EDEB0
:14050C0040916E0055274130E0E05E0729F04230E0E05E07DA
:1405200011F001C0DD9A599149910895AA9260D1002309F0A4
:1405340017C004E610E05ED15BD1002309F410C0A3DE06C070
:1405480053D1A02E002309F005C0A8954FD1A02E0023B1F7D6
:14055C00C3DE08EE13E04AD1A9900895AA9243D1002309F0A4
:1405700017C004E610E040D13ED1002309F410C09BDE06C077
:1405840036D1A02E002309F005C0A89532D1A02E0023B1F7D4
:14059800A5DE08EE13E02CD1A99008952A9740906A00509035
:1405AC006B0020906800309069002E823F824886598688E801
:1405C00090E0FE0106E010E0FA93EA939A938A9349D388E109
:1405D4000E94E20639D309830E9408071201442455242A82A0
:1405E80088E00E94E2062ED30B830E9408072C8226E08E018A
:1405FC008FD12A960895A8958FE181BD8FE081BD0895A895BC
:14061000D89817CFD89A0895EDD2A22E6801E199FECFDFBA99
:14062400CEBAADBAE29AF894E19A789401E010E0E1D0D0C230
:14063800E199FECF1FBB0EBBE09A0DB308950A921A922A92E9
:14064C003A924A925A928A929A920E9412070FB60A92AA9266
:14066000BA9280916D008330E1F0813069F481E090E0A0E0D9
:14067400B0E00E947306280E391E4A1E5B1E0E94A20628C027
:1406880081E090E0A0E0B0E00E947306281A390A4A0A5B0A24
:14069C000E94A2061BC0839B0DC081E090E0A0E0B0E00E94B7
:1406B0007306280E391E4A1E5B1E0E94A2060CC081E090E068
:1406C400A0E0B0E00E947306281A390A4A0A5B0A0E94A2066F
:1406D80081E090E0A0E0B0E00E94C306280E391E4A1E5B1E54
:1406EC00309261002092600050926300409262008AB7806427
:140700008ABFB990A99009900FBE0E94F906999089905990E8
:1407140049903990299019900990189583E085BF8BB78064BA
:140728008BBF0895989B02C0002701C001E00895999B02C085
:14073C00002701C001E008959A9B02C0002701C001E00895E6
:140750009B9B02C0002701C001E0089520907000222029F0BC
:1407640022242092700001E001C00027089520907100222050
:1407780011F001E001C00027089520907200222029F0222443
:14078C002092720001E001C00027089520907300222029F051
:1407A00022242092730001E001C0002708952090740022200E
:1407B40029F022242092740001E001C0002708952090750021
:1407C800222029F022242092750001E001C00027089520903F
:1407DC007700222029F022242092770001E001C00027089562
:1407F0009DCFA2CFA7CFACCF02D266277727442755270CC075
:140804006627772702C06F5F7F4F6537E4E07E07D0F3A89572
:140818004F5F5F4F4017510788F3F0C1BD9ABF9ABC9A81E529
:14082C008DB90895000F111F000F111FC4981801232C33243C
:140840002FB8779BFECF0FB9779BFECFC49A089506EB13E058
:14085400EDCF0CE612E0EACF06E311E0E7CF00271127E4CF95
:140868002A923A928A939A93EA93FA932FB62A925798209060
:14087C008E003324822D8F5F80938E008FE890E0E22DFF2729
:14089000E80FF91F2CB02082579A29902FBEF991E991999102
:1408A4008991399029901895222420928E00089500918E00B5
:1408B8000895A9D1580122242AB82BB886E880BD1501442488
:1408CC00552440E251EA67E070E05A924A923A922A928A01D0
:1408E0009B011ED141E050E060E070E018012901241A350AD8
:1408F400460A570A510129B8232C332420BC88E98AB980E86E
:140908008FBF899A85C15D9BFECF0CB95E9BFECF5E9A08953F
:14091C0069D1C22E7801AA2407C0EA2DFF27EE0DFF1D0081BA
:14093000EEDFA394AC14B8F352C1AA924A934FEFAA2426C026
:140944008FE890E0EA2D0E949D068337F1F480E990E0EA2DCD
:140958000E949D068437B9F481E990E0EA2D0E949D068136F1
:14096C0081F482E990E0EA2D0E949D06823749F483E990E0F9
:14098000EA2D0E949D06843711F44A2D06C0A394802F845050
:14099400A81608F4D5CF042F4991A99008952DD187DF602F1B
:1409A8004FEF093008F4B1C084E1861720F4222420928E00BB
:1409BC00AAC08EE890E0E62F0E949D06843609F0A1C08DE8F4
:1409D00090E0E62F0E949D068E3609F099C08CE890E0E62F3A
:1409E4000E949D06853609F091C0062FA4DF402F0F3F09F443
:1409F80089C084E990E0E42FFF27E80FF91F6081772761306D
:140A0C00E0E07E0741F16230E0E07E0709F459C06330E0E01F
:140A20007E0709F458C06430E0E07E0709F457C06630E0E0E5
:140A34007E0709F45BC06730E0E07E0709F45FC06830E0E0C1
:140A48007E0709F45EC06130E0E07E070CF45AC06131E0E0B8
:140A5C007E0751F055C085E90E94960620926D0081E080936C
:140A700070004CC085E90E94960633244424552430926900E7
:140A84002092680050926B0040926A0088E090E081019201CE
:140A98008A93CED00E94BA0686E90E944A060E94F306C6D09B
:140AAC000E94BA0687E90E944A060E94F306BED00E94BA06E7
:140AC00088E90E944A0681E0809371001FC081E08093720015
:140AD4001BC081E08093730017C085E90E94960620926E00A9
:140AE80081E0809374000EC085E90E94960620926C0081E019
:140AFC008093770005C081E08093750001C04CDDCFDE01C056
:140B1000CDDE78C0E89401C068942DD0CC2408C0E89401C0C3
:140B2400689427D037FD7DD0B7FD4BD0772488249924AA24A8
:140B3800BB243BD0B1F03ED0A1F0E8E20E94FE06771C881CD8
:140B4C00991CAA1CBB1C88169906AA06BB0628F0881A990A38
:140B6000AA0ABB0A0395EA9569F726F4082D192D2A2D3B2D3D
:140B740011C07A928A929A92AA92BA92CA92EA930E9412072C
:140B88008B859C85AD85BE85C32E0EF0CB260895C7FC45D05E
:140B9C000E94F906E991C990B990A99099908990799024964A
:140BB0000895E02FE12BE22BE32B0895E82FE92BEA2BEB2B6B
:140BC400089580959095A095B0958F5F9F4FAF4FBF4F089547
:140BD8000E94030708950E940307E990F99008957A936A936B
:140BEC005A934A93FA92EA92DA92CA92BA92AA9208950E9494
:140C0000EE060895499159916991799108950E94EE06BA9208
:140C1400AA920895A990B99049915991699179910895009577
:140C28001095209530950F5F1F4F2F4F3F4F08950F920990DA
:140C3C00002021F00E94FE060A94FACF0F9008950F920990F0
:140C5000002031F036952795179507950A94F8CF0F900895DF
:140C6400AA93BA93EA93FA930A92AF81B885ED81FE810030C2
:140C7800010729F001900D9201501040F8CF0990F991E99112
:140C8C00B991A9912496089590E0E42FFF27E80FF91F208021
:140CA00033244424552438014901620C731C841C951C709235
:140CB40069006092680090926B0080926A00089540906A0089
:140CC80050906B00209068003090690080906600909067008F
:140CDC00609064007090650008954090660050906700209081
:140CF0006400309065000895A02E2A2C332444245524688086
:140D040079808A809B80620C731C841C951C688279828A827E
:140D18009B82089588E090E0088119812A813B818A930895F1
:140D2C0090E0E42FFF27E80FF91F20800895FF27E80FF91F89
:140D4000808108953092650020926400509267004092660043
:140D54000895088319832A833B83288039804A805B80222D07
:140D68000895088319832A833B8308951093690000936800A4
:140D7C0030936B0020936A0008954090620050906300209056
:140D9000600030906100089590E020916600309167000091F1
:140DA4006400109165008A93089580E0888389838A838B8385
:140DB80008956214730484049504089590E00E811F81288593
:140DCC0039858A930895288239824A825B8208957A936A93E6
:140DE0005A934A93089588E090E0830194018A930895B991A3
:140DF400A991999189910895000F111F221F331F0895A99028
:140E0800B990C990D99008952E803F80488459840895261441
:120E1C0037044804590408958A939A93AA93BA930895D2
:00000001FF
